{
  "contractName": "CryptosICO",
  "abi": [
    {
      "inputs": [
        {
          "internalType": "address payable",
          "name": "_deposit",
          "type": "address"
        }
      ],
      "stateMutability": "nonpayable",
      "type": "constructor"
    },
    {
      "anonymous": false,
      "inputs": [
        {
          "indexed": true,
          "internalType": "address",
          "name": "tokenOwner",
          "type": "address"
        },
        {
          "indexed": true,
          "internalType": "address",
          "name": "spender",
          "type": "address"
        },
        {
          "indexed": false,
          "internalType": "uint256",
          "name": "tokens",
          "type": "uint256"
        }
      ],
      "name": "Approval",
      "type": "event"
    },
    {
      "anonymous": false,
      "inputs": [
        {
          "indexed": false,
          "internalType": "address",
          "name": "investor",
          "type": "address"
        },
        {
          "indexed": false,
          "internalType": "uint256",
          "name": "value",
          "type": "uint256"
        },
        {
          "indexed": false,
          "internalType": "uint256",
          "name": "tokens",
          "type": "uint256"
        }
      ],
      "name": "Invest",
      "type": "event"
    },
    {
      "anonymous": false,
      "inputs": [
        {
          "indexed": true,
          "internalType": "address",
          "name": "from",
          "type": "address"
        },
        {
          "indexed": true,
          "internalType": "address",
          "name": "to",
          "type": "address"
        },
        {
          "indexed": false,
          "internalType": "uint256",
          "name": "token",
          "type": "uint256"
        }
      ],
      "name": "Transfer",
      "type": "event"
    },
    {
      "inputs": [],
      "name": "admin",
      "outputs": [
        {
          "internalType": "address",
          "name": "",
          "type": "address"
        }
      ],
      "stateMutability": "view",
      "type": "function"
    },
    {
      "inputs": [
        {
          "internalType": "address",
          "name": "tokenOwner",
          "type": "address"
        },
        {
          "internalType": "address",
          "name": "spender",
          "type": "address"
        }
      ],
      "name": "allowance",
      "outputs": [
        {
          "internalType": "uint256",
          "name": "remaining",
          "type": "uint256"
        }
      ],
      "stateMutability": "view",
      "type": "function"
    },
    {
      "inputs": [
        {
          "internalType": "address",
          "name": "",
          "type": "address"
        },
        {
          "internalType": "address",
          "name": "",
          "type": "address"
        }
      ],
      "name": "allowed",
      "outputs": [
        {
          "internalType": "uint256",
          "name": "",
          "type": "uint256"
        }
      ],
      "stateMutability": "view",
      "type": "function"
    },
    {
      "inputs": [
        {
          "internalType": "address",
          "name": "spender",
          "type": "address"
        },
        {
          "internalType": "uint256",
          "name": "tokens",
          "type": "uint256"
        }
      ],
      "name": "approve",
      "outputs": [
        {
          "internalType": "bool",
          "name": "success",
          "type": "bool"
        }
      ],
      "stateMutability": "nonpayable",
      "type": "function"
    },
    {
      "inputs": [
        {
          "internalType": "address",
          "name": "tokenOwner",
          "type": "address"
        }
      ],
      "name": "balanceOf",
      "outputs": [
        {
          "internalType": "uint256",
          "name": "balance",
          "type": "uint256"
        }
      ],
      "stateMutability": "view",
      "type": "function"
    },
    {
      "inputs": [
        {
          "internalType": "address",
          "name": "",
          "type": "address"
        }
      ],
      "name": "balances",
      "outputs": [
        {
          "internalType": "uint256",
          "name": "",
          "type": "uint256"
        }
      ],
      "stateMutability": "view",
      "type": "function"
    },
    {
      "inputs": [],
      "name": "decimals",
      "outputs": [
        {
          "internalType": "uint256",
          "name": "",
          "type": "uint256"
        }
      ],
      "stateMutability": "view",
      "type": "function"
    },
    {
      "inputs": [],
      "name": "deposit",
      "outputs": [
        {
          "internalType": "address payable",
          "name": "",
          "type": "address"
        }
      ],
      "stateMutability": "view",
      "type": "function"
    },
    {
      "inputs": [],
      "name": "founder",
      "outputs": [
        {
          "internalType": "address",
          "name": "",
          "type": "address"
        }
      ],
      "stateMutability": "view",
      "type": "function"
    },
    {
      "inputs": [],
      "name": "hardcap",
      "outputs": [
        {
          "internalType": "uint256",
          "name": "",
          "type": "uint256"
        }
      ],
      "stateMutability": "view",
      "type": "function"
    },
    {
      "inputs": [],
      "name": "icoState",
      "outputs": [
        {
          "internalType": "enum CryptosICO.State",
          "name": "",
          "type": "uint8"
        }
      ],
      "stateMutability": "view",
      "type": "function"
    },
    {
      "inputs": [],
      "name": "maxInvestment",
      "outputs": [
        {
          "internalType": "uint256",
          "name": "",
          "type": "uint256"
        }
      ],
      "stateMutability": "view",
      "type": "function"
    },
    {
      "inputs": [],
      "name": "minInvestment",
      "outputs": [
        {
          "internalType": "uint256",
          "name": "",
          "type": "uint256"
        }
      ],
      "stateMutability": "view",
      "type": "function"
    },
    {
      "inputs": [],
      "name": "name",
      "outputs": [
        {
          "internalType": "string",
          "name": "",
          "type": "string"
        }
      ],
      "stateMutability": "view",
      "type": "function"
    },
    {
      "inputs": [],
      "name": "raisedAmount",
      "outputs": [
        {
          "internalType": "uint256",
          "name": "",
          "type": "uint256"
        }
      ],
      "stateMutability": "view",
      "type": "function"
    },
    {
      "inputs": [],
      "name": "saleEnd",
      "outputs": [
        {
          "internalType": "uint256",
          "name": "",
          "type": "uint256"
        }
      ],
      "stateMutability": "view",
      "type": "function"
    },
    {
      "inputs": [],
      "name": "saleStart",
      "outputs": [
        {
          "internalType": "uint256",
          "name": "",
          "type": "uint256"
        }
      ],
      "stateMutability": "view",
      "type": "function"
    },
    {
      "inputs": [],
      "name": "symbol",
      "outputs": [
        {
          "internalType": "string",
          "name": "",
          "type": "string"
        }
      ],
      "stateMutability": "view",
      "type": "function"
    },
    {
      "inputs": [],
      "name": "tokenTradeStart",
      "outputs": [
        {
          "internalType": "uint256",
          "name": "",
          "type": "uint256"
        }
      ],
      "stateMutability": "view",
      "type": "function"
    },
    {
      "inputs": [],
      "name": "totalSupply",
      "outputs": [
        {
          "internalType": "uint256",
          "name": "",
          "type": "uint256"
        }
      ],
      "stateMutability": "view",
      "type": "function"
    },
    {
      "stateMutability": "payable",
      "type": "receive"
    },
    {
      "inputs": [],
      "name": "halt",
      "outputs": [],
      "stateMutability": "nonpayable",
      "type": "function"
    },
    {
      "inputs": [],
      "name": "resume",
      "outputs": [],
      "stateMutability": "nonpayable",
      "type": "function"
    },
    {
      "inputs": [
        {
          "internalType": "address payable",
          "name": "newDeposit",
          "type": "address"
        }
      ],
      "name": "changeDepositAddress",
      "outputs": [],
      "stateMutability": "nonpayable",
      "type": "function"
    },
    {
      "inputs": [],
      "name": "getCurrentState",
      "outputs": [
        {
          "internalType": "enum CryptosICO.State",
          "name": "",
          "type": "uint8"
        }
      ],
      "stateMutability": "view",
      "type": "function"
    },
    {
      "inputs": [],
      "name": "invest",
      "outputs": [
        {
          "internalType": "bool",
          "name": "",
          "type": "bool"
        }
      ],
      "stateMutability": "payable",
      "type": "function"
    },
    {
      "inputs": [
        {
          "internalType": "address",
          "name": "to",
          "type": "address"
        },
        {
          "internalType": "uint256",
          "name": "tokens",
          "type": "uint256"
        }
      ],
      "name": "transfer",
      "outputs": [
        {
          "internalType": "bool",
          "name": "success",
          "type": "bool"
        }
      ],
      "stateMutability": "nonpayable",
      "type": "function"
    },
    {
      "inputs": [
        {
          "internalType": "address",
          "name": "from",
          "type": "address"
        },
        {
          "internalType": "address",
          "name": "to",
          "type": "address"
        },
        {
          "internalType": "uint256",
          "name": "tokens",
          "type": "uint256"
        }
      ],
      "name": "tranferFrom",
      "outputs": [
        {
          "internalType": "bool",
          "name": "success",
          "type": "bool"
        }
      ],
      "stateMutability": "nonpayable",
      "type": "function"
    }
  ],
  "bytecode": "0x60806040526040518060400160405280600781526020017f43727970746f7300000000000000000000000000000000000000000000000000815250600090816200004a91906200051a565b506040518060400160405280600481526020017f4352505400000000000000000000000000000000000000000000000000000000815250600190816200009191906200051a565b50600060025566038d7ea4c68000600955681043561a8829300000600a55601442620000be919062000630565b600c5562093a8042620000d2919062000630565b600d5562093a80600d54620000e8919062000630565b600e55674563918244f40000600f5567016345785d8a00006010553480156200011057600080fd5b506040516200212f3803806200212f8339818101604052810190620001369190620006d5565b620f424060038190555033600460006101000a81548173ffffffffffffffffffffffffffffffffffffffff021916908373ffffffffffffffffffffffffffffffffffffffff16021790555060035460056000600460009054906101000a900473ffffffffffffffffffffffffffffffffffffffff1673ffffffffffffffffffffffffffffffffffffffff1673ffffffffffffffffffffffffffffffffffffffff1681526020019081526020016000208190555080600860006101000a81548173ffffffffffffffffffffffffffffffffffffffff021916908373ffffffffffffffffffffffffffffffffffffffff16021790555033600760006101000a81548173ffffffffffffffffffffffffffffffffffffffff021916908373ffffffffffffffffffffffffffffffffffffffff1602179055506000601160006101000a81548160ff0219169083600381111562000294576200029362000707565b5b02179055505062000736565b600081519050919050565b7f4e487b7100000000000000000000000000000000000000000000000000000000600052604160045260246000fd5b7f4e487b7100000000000000000000000000000000000000000000000000000000600052602260045260246000fd5b600060028204905060018216806200032257607f821691505b602082108103620003385762000337620002da565b5b50919050565b60008190508160005260206000209050919050565b60006020601f8301049050919050565b600082821b905092915050565b600060088302620003a27fffffffffffffffffffffffffffffffffffffffffffffffffffffffffffffffff8262000363565b620003ae868362000363565b95508019841693508086168417925050509392505050565b6000819050919050565b6000819050919050565b6000620003fb620003f5620003ef84620003c6565b620003d0565b620003c6565b9050919050565b6000819050919050565b6200041783620003da565b6200042f620004268262000402565b84845462000370565b825550505050565b600090565b6200044662000437565b620004538184846200040c565b505050565b5b818110156200047b576200046f6000826200043c565b60018101905062000459565b5050565b601f821115620004ca5762000494816200033e565b6200049f8462000353565b81016020851015620004af578190505b620004c7620004be8562000353565b83018262000458565b50505b505050565b600082821c905092915050565b6000620004ef60001984600802620004cf565b1980831691505092915050565b60006200050a8383620004dc565b9150826002028217905092915050565b6200052582620002a0565b67ffffffffffffffff811115620005415762000540620002ab565b5b6200054d825462000309565b6200055a8282856200047f565b600060209050601f8311600181146200059257600084156200057d578287015190505b620005898582620004fc565b865550620005f9565b601f198416620005a2866200033e565b60005b82811015620005cc57848901518255600182019150602085019450602081019050620005a5565b86831015620005ec5784890151620005e8601f891682620004dc565b8355505b6001600288020188555050505b505050505050565b7f4e487b7100000000000000000000000000000000000000000000000000000000600052601160045260246000fd5b60006200063d82620003c6565b91506200064a83620003c6565b925082820190508082111562000665576200066462000601565b5b92915050565b600080fd5b600073ffffffffffffffffffffffffffffffffffffffff82169050919050565b60006200069d8262000670565b9050919050565b620006af8162000690565b8114620006bb57600080fd5b50565b600081519050620006cf81620006a4565b92915050565b600060208284031215620006ee57620006ed6200066b565b5b6000620006fe84828501620006be565b91505092915050565b7f4e487b7100000000000000000000000000000000000000000000000000000000600052602160045260246000fd5b6119e980620007466000396000f3fe60806040526004361061019f5760003560e01c806370a08231116100ec578063c10b93581161008a578063d0e30db011610064578063d0e30db0146105d2578063dd62ed3e146105fd578063e8b5e51f1461063a578063f851a44014610658576101ae565b8063c10b935814610551578063c59ee1dc1461057c578063cc9ba583146105a7576101ae565b806395d89b41116100c657806395d89b4114610493578063a9059cbb146104be578063ab0bcc41146104fb578063b071cbe614610526576101ae565b806370a08231146103ee5780638ac2c6801461042b5780639264a16914610456576101ae565b8063313ce567116101595780634d853ee5116101335780634d853ee5146103465780635c658165146103715780635ed7ca5b146103ae5780636d58c88f146103c5576101ae565b8063313ce567146102c5578063378aa701146102f057806344f387561461031b576101ae565b80622e1316146101b3578063046f7da2146101de57806306fdde03146101f5578063095ea7b31461022057806318160ddd1461025d57806327e235e314610288576101ae565b366101ae576101ac610683565b005b600080fd5b3480156101bf57600080fd5b506101c86108c9565b6040516101d591906113b0565b60405180910390f35b3480156101ea57600080fd5b506101f36108cf565b005b34801561020157600080fd5b5061020a610956565b604051610217919061145b565b60405180910390f35b34801561022c57600080fd5b506102476004803603810190610242919061150c565b6109e4565b6040516102549190611567565b60405180910390f35b34801561026957600080fd5b50610272610b2f565b60405161027f91906113b0565b60405180910390f35b34801561029457600080fd5b506102af60048036038101906102aa9190611582565b610b35565b6040516102bc91906113b0565b60405180910390f35b3480156102d157600080fd5b506102da610b4d565b6040516102e791906113b0565b60405180910390f35b3480156102fc57600080fd5b50610305610b53565b6040516103129190611626565b60405180910390f35b34801561032757600080fd5b50610330610bd5565b60405161033d9190611626565b60405180910390f35b34801561035257600080fd5b5061035b610be8565b6040516103689190611650565b60405180910390f35b34801561037d57600080fd5b506103986004803603810190610393919061166b565b610c0e565b6040516103a591906113b0565b60405180910390f35b3480156103ba57600080fd5b506103c3610c33565b005b3480156103d157600080fd5b506103ec60048036038101906103e791906116e9565b610cba565b005b3480156103fa57600080fd5b5061041560048036038101906104109190611582565b610d58565b60405161042291906113b0565b60405180910390f35b34801561043757600080fd5b50610440610da1565b60405161044d91906113b0565b60405180910390f35b34801561046257600080fd5b5061047d60048036038101906104789190611716565b610da7565b60405161048a9190611567565b60405180910390f35b34801561049f57600080fd5b506104a8610dce565b6040516104b5919061145b565b60405180910390f35b3480156104ca57600080fd5b506104e560048036038101906104e0919061150c565b610e5c565b6040516104f29190611567565b60405180910390f35b34801561050757600080fd5b50610510610e81565b60405161051d91906113b0565b60405180910390f35b34801561053257600080fd5b5061053b610e87565b60405161054891906113b0565b60405180910390f35b34801561055d57600080fd5b50610566610e8d565b60405161057391906113b0565b60405180910390f35b34801561058857600080fd5b50610591610e93565b60405161059e91906113b0565b60405180910390f35b3480156105b357600080fd5b506105bc610e99565b6040516105c991906113b0565b60405180910390f35b3480156105de57600080fd5b506105e7610e9f565b6040516105f49190611778565b60405180910390f35b34801561060957600080fd5b50610624600480360381019061061f919061166b565b610ec5565b60405161063191906113b0565b60405180910390f35b610642610683565b60405161064f9190611567565b60405180910390f35b34801561066457600080fd5b5061066d610f4c565b60405161067a9190611650565b60405180910390f35b600061068d610b53565b601160006101000a81548160ff021916908360038111156106b1576106b06115af565b5b0217905550600160038111156106ca576106c96115af565b5b601160009054906101000a900460ff1660038111156106ec576106eb6115af565b5b146106f657600080fd5b601054341015801561070a5750600f543411155b61071357600080fd5b34600b600082825461072591906117c2565b92505081905550600a54600b54111561073d57600080fd5b60006009543461074d9190611825565b905080600560003373ffffffffffffffffffffffffffffffffffffffff1673ffffffffffffffffffffffffffffffffffffffff168152602001908152602001600020600082825461079e91906117c2565b925050819055508060056000600460009054906101000a900473ffffffffffffffffffffffffffffffffffffffff1673ffffffffffffffffffffffffffffffffffffffff1673ffffffffffffffffffffffffffffffffffffffff16815260200190815260200160002060008282546108169190611856565b92505081905550600860009054906101000a900473ffffffffffffffffffffffffffffffffffffffff1673ffffffffffffffffffffffffffffffffffffffff166108fc349081150290604051600060405180830381858888f19350505050158015610885573d6000803e3d6000fd5b507f4ae4bd7655e0d350876a23cd90c4227b13db560e34435c6a488150a9c844bf5f3334836040516108b99392919061188a565b60405180910390a1600191505090565b600f5481565b600760009054906101000a900473ffffffffffffffffffffffffffffffffffffffff1673ffffffffffffffffffffffffffffffffffffffff163373ffffffffffffffffffffffffffffffffffffffff161461092957600080fd5b6001601160006101000a81548160ff0219169083600381111561094f5761094e6115af565b5b0217905550565b60008054610963906118f0565b80601f016020809104026020016040519081016040528092919081815260200182805461098f906118f0565b80156109dc5780601f106109b1576101008083540402835291602001916109dc565b820191906000526020600020905b8154815290600101906020018083116109bf57829003601f168201915b505050505081565b600081600560003373ffffffffffffffffffffffffffffffffffffffff1673ffffffffffffffffffffffffffffffffffffffff168152602001908152602001600020541015610a3257600080fd5b60008211610a3f57600080fd5b81600660003373ffffffffffffffffffffffffffffffffffffffff1673ffffffffffffffffffffffffffffffffffffffff16815260200190815260200160002060008573ffffffffffffffffffffffffffffffffffffffff1673ffffffffffffffffffffffffffffffffffffffff168152602001908152602001600020819055508273ffffffffffffffffffffffffffffffffffffffff163373ffffffffffffffffffffffffffffffffffffffff167f8c5be1e5ebec7d5bd14f71427d1e84f3dd0314c0f7b2291e5b200ac8c7c3b92584604051610b1d91906113b0565b60405180910390a36001905092915050565b60035481565b60056020528060005260406000206000915090505481565b60025481565b6000600380811115610b6857610b676115af565b5b601160009054906101000a900460ff166003811115610b8a57610b896115af565b5b03610b985760039050610bd2565b600c54421015610bab5760009050610bd2565b600c544210158015610bbf5750600d544211155b15610bcd5760019050610bd2565b600290505b90565b601160009054906101000a900460ff1681565b600460009054906101000a900473ffffffffffffffffffffffffffffffffffffffff1681565b6006602052816000526040600020602052806000526040600020600091509150505481565b600760009054906101000a900473ffffffffffffffffffffffffffffffffffffffff1673ffffffffffffffffffffffffffffffffffffffff163373ffffffffffffffffffffffffffffffffffffffff1614610c8d57600080fd5b6003601160006101000a81548160ff02191690836003811115610cb357610cb26115af565b5b0217905550565b600760009054906101000a900473ffffffffffffffffffffffffffffffffffffffff1673ffffffffffffffffffffffffffffffffffffffff163373ffffffffffffffffffffffffffffffffffffffff1614610d1457600080fd5b80600860006101000a81548173ffffffffffffffffffffffffffffffffffffffff021916908373ffffffffffffffffffffffffffffffffffffffff16021790555050565b6000600560008373ffffffffffffffffffffffffffffffffffffffff1673ffffffffffffffffffffffffffffffffffffffff168152602001908152602001600020549050919050565b60105481565b6000600e544211610db757600080fd5b610dc2848484610f72565b50600190509392505050565b60018054610ddb906118f0565b80601f0160208091040260200160405190810160405280929190818152602001828054610e07906118f0565b8015610e545780601f10610e2957610100808354040283529160200191610e54565b820191906000526020600020905b815481529060010190602001808311610e3757829003601f168201915b505050505081565b6000600e544211610e6c57600080fd5b610e7683836111f8565b506001905092915050565b600c5481565b600a5481565b600d5481565b600b5481565b600e5481565b600860009054906101000a900473ffffffffffffffffffffffffffffffffffffffff1681565b6000600660008473ffffffffffffffffffffffffffffffffffffffff1673ffffffffffffffffffffffffffffffffffffffff16815260200190815260200160002060008373ffffffffffffffffffffffffffffffffffffffff1673ffffffffffffffffffffffffffffffffffffffff16815260200190815260200160002054905092915050565b600760009054906101000a900473ffffffffffffffffffffffffffffffffffffffff1681565b600081600660008673ffffffffffffffffffffffffffffffffffffffff1673ffffffffffffffffffffffffffffffffffffffff16815260200190815260200160002060003373ffffffffffffffffffffffffffffffffffffffff1673ffffffffffffffffffffffffffffffffffffffff168152602001908152602001600020541015610ffd57600080fd5b81600560008673ffffffffffffffffffffffffffffffffffffffff1673ffffffffffffffffffffffffffffffffffffffff16815260200190815260200160002054101561104957600080fd5b81600560008673ffffffffffffffffffffffffffffffffffffffff1673ffffffffffffffffffffffffffffffffffffffff16815260200190815260200160002060008282546110989190611856565b9250508190555081600660008673ffffffffffffffffffffffffffffffffffffffff1673ffffffffffffffffffffffffffffffffffffffff16815260200190815260200160002060003373ffffffffffffffffffffffffffffffffffffffff1673ffffffffffffffffffffffffffffffffffffffff168152602001908152602001600020600082825461112b9190611856565b9250508190555081600560008573ffffffffffffffffffffffffffffffffffffffff1673ffffffffffffffffffffffffffffffffffffffff168152602001908152602001600020600082825461118191906117c2565b925050819055508273ffffffffffffffffffffffffffffffffffffffff168473ffffffffffffffffffffffffffffffffffffffff167fddf252ad1be2c89b69c2b068fc378daa952ba7f163c4a11628f55a4df523b3ef846040516111e591906113b0565b60405180910390a3600190509392505050565b600081600560003373ffffffffffffffffffffffffffffffffffffffff1673ffffffffffffffffffffffffffffffffffffffff16815260200190815260200160002054101561127c576040517f08c379a000000000000000000000000000000000000000000000000000000000815260040161127390611993565b60405180910390fd5b81600560008573ffffffffffffffffffffffffffffffffffffffff1673ffffffffffffffffffffffffffffffffffffffff16815260200190815260200160002060008282546112cb91906117c2565b9250508190555081600560003373ffffffffffffffffffffffffffffffffffffffff1673ffffffffffffffffffffffffffffffffffffffff16815260200190815260200160002060008282546113219190611856565b925050819055508273ffffffffffffffffffffffffffffffffffffffff163373ffffffffffffffffffffffffffffffffffffffff167fddf252ad1be2c89b69c2b068fc378daa952ba7f163c4a11628f55a4df523b3ef8460405161138591906113b0565b60405180910390a36001905092915050565b6000819050919050565b6113aa81611397565b82525050565b60006020820190506113c560008301846113a1565b92915050565b600081519050919050565b600082825260208201905092915050565b60005b838110156114055780820151818401526020810190506113ea565b60008484015250505050565b6000601f19601f8301169050919050565b600061142d826113cb565b61143781856113d6565b93506114478185602086016113e7565b61145081611411565b840191505092915050565b600060208201905081810360008301526114758184611422565b905092915050565b600080fd5b600073ffffffffffffffffffffffffffffffffffffffff82169050919050565b60006114ad82611482565b9050919050565b6114bd816114a2565b81146114c857600080fd5b50565b6000813590506114da816114b4565b92915050565b6114e981611397565b81146114f457600080fd5b50565b600081359050611506816114e0565b92915050565b600080604083850312156115235761152261147d565b5b6000611531858286016114cb565b9250506020611542858286016114f7565b9150509250929050565b60008115159050919050565b6115618161154c565b82525050565b600060208201905061157c6000830184611558565b92915050565b6000602082840312156115985761159761147d565b5b60006115a6848285016114cb565b91505092915050565b7f4e487b7100000000000000000000000000000000000000000000000000000000600052602160045260246000fd5b600481106115ef576115ee6115af565b5b50565b6000819050611600826115de565b919050565b6000611610826115f2565b9050919050565b61162081611605565b82525050565b600060208201905061163b6000830184611617565b92915050565b61164a816114a2565b82525050565b60006020820190506116656000830184611641565b92915050565b600080604083850312156116825761168161147d565b5b6000611690858286016114cb565b92505060206116a1858286016114cb565b9150509250929050565b60006116b682611482565b9050919050565b6116c6816116ab565b81146116d157600080fd5b50565b6000813590506116e3816116bd565b92915050565b6000602082840312156116ff576116fe61147d565b5b600061170d848285016116d4565b91505092915050565b60008060006060848603121561172f5761172e61147d565b5b600061173d868287016114cb565b935050602061174e868287016114cb565b925050604061175f868287016114f7565b9150509250925092565b611772816116ab565b82525050565b600060208201905061178d6000830184611769565b92915050565b7f4e487b7100000000000000000000000000000000000000000000000000000000600052601160045260246000fd5b60006117cd82611397565b91506117d883611397565b92508282019050808211156117f0576117ef611793565b5b92915050565b7f4e487b7100000000000000000000000000000000000000000000000000000000600052601260045260246000fd5b600061183082611397565b915061183b83611397565b92508261184b5761184a6117f6565b5b828204905092915050565b600061186182611397565b915061186c83611397565b925082820390508181111561188457611883611793565b5b92915050565b600060608201905061189f6000830186611641565b6118ac60208301856113a1565b6118b960408301846113a1565b949350505050565b7f4e487b7100000000000000000000000000000000000000000000000000000000600052602260045260246000fd5b6000600282049050600182168061190857607f821691505b60208210810361191b5761191a6118c1565b5b50919050565b7f6e6f7420656e6f7567682062616c616e636520617661696c61626c6520746f2060008201527f7472616e66657200000000000000000000000000000000000000000000000000602082015250565b600061197d6027836113d6565b915061198882611921565b604082019050919050565b600060208201905081810360008301526119ac81611970565b905091905056fea26469706673582212204f052cd23bfb8cd8072371321374704d617a1b57f6d04857441aa47f9169af4b64736f6c63430008100033",
  "immutableReferences": {},
  "source": "// SPDX-License-Identifier: GPL-3.0\npragma solidity >=0.7.0 <0.9.0;\ninterface ERC20Interface{\n    function totalSupply() external view returns(uint);\n    function balanceOf(address tokenOwner) external view returns (uint balance);\n    function transfer(address to,uint tokens) external returns(bool success);\n\n\n     function allowance(address tokenOwner,address spender) external view returns(uint remaining);\n     function approve(address spender,uint tokens) external returns (bool success);\n     function tranferFrom(address from,address to,uint tokens) external returns (bool success);\n\n\n    event Transfer(address indexed from, address indexed to, uint token);\n    event Approval(address indexed tokenOwner,address indexed spender,uint tokens);\n\n\n\n}\n\n\ncontract ERC20 is ERC20Interface{\n    \n    string public name = \"Cryptos\";\n    string public symbol= \"CRPT\";\n    uint public decimals = 0; //18\n    // total supply - represent the toral number of tokens\n    uint public override totalSupply; // a getter function will be created bcz the variable is public\n\n    address public founder;\n    // map to store each address and no of tokens with respect to it\n    mapping(address=>uint) public balances;\n   \n\n   constructor(){\n    totalSupply= 1000000;\n    founder = msg.sender;\n    balances[founder] = totalSupply;\n   }\n\n\n// first - this mapping includes the accounts approved tp withdraw from a \n// account together with the withdrawal sum allowed for wach of them\n\n// first mapping is the key - the address of the token holder\n// second map inside it - is representing the addresses that are allowed to transfer\n\n   mapping(address=>mapping(address=>uint)) public allowed;\n\n\n      function balanceOf(address tokenOwner) public view override returns (uint balance){\n        return balances[tokenOwner];\n      }\n  \n function transfer(address to,uint tokens) public virtual override returns(bool success){\n      \n       require(balances[msg.sender]>=tokens,\"not enough balance available to tranfer\");\n       \n       balances[to] +=tokens;\n       balances[msg.sender] -= tokens;\n\n       emit Transfer(msg.sender, to, tokens);\n       return true;\n }\n\n\n\n // it allows the spender to withdraw and transfer from the\n // owners account multiple times upto the allowance\n // this function will also change the current allowance\n // func - will only be called by the account that was allowed to\n // transfer token from the holders accounts to his own or to another\n\n \n\n function tranferFrom(address from,address to,uint tokens) public virtual override returns (bool success){\n    // checking the allowance of curent user - who call this function\n    // is greater and equal to tokens\n    \n    require(allowed[from][msg.sender]>=tokens);\n    require(balances[from]>= tokens);\n    balances[from] -= tokens;\n    allowed[from][msg.sender] -=tokens;\n    balances[to] += tokens;\n    emit Transfer(from, to, tokens);\n    return true;\n  }\n   function allowance(address tokenOwner,address spender) public view override returns(uint remaining){\n    return allowed[tokenOwner][spender];\n   }\n\n\n// this functiokn will be called by token owner to set the allowance\n// which is the ammount that can be spent by the spender of this account\n\n  function approve(address spender,uint tokens) public  override returns (bool success){\n     require(balances[msg.sender] >= tokens);\n     require(tokens>0); \n     allowed[msg.sender][spender] = tokens;\n  \n     emit Approval(msg.sender, spender, tokens);\n     return true;\n  }\n\n\n\n     \n\n    \n\n\n}\n\ncontract CryptosICO is ERC20{\n    // admin - who deploys the contract\n    // -if any emergency or can change the deposit if it gets compromised\n\n     address public admin;\n\n     // investor will send eth to contract address\n     // the ether will automictaically transfer to deposit address\n     // and the cryptos will be added to the balance of investor\n     address payable public deposit;\n\n     // set token price - 1000crypt for 1 ether\n     uint tokenPrice = 0.001 ether;\n\n     // hardcap - maximum amount of ether that can be invested\n     uint public hardcap = 300 ether;\n\n     // raisedAmount - total amount of ether sent to the ICO\n     uint public raisedAmount;\n\n   // iCo will start in 20 seconds after the deployment\n     uint public saleStart = block.timestamp + 20;\n\n     uint public saleEnd = block.timestamp + 604800;\n\n    // set token to tranfer only after a time after the Ico\n    // ends so that the early investors can not dump the tokens on the market, \n    // causing the price to collapse\n    uint public tokenTradeStart = saleEnd + 604800; // transferable in a week after sale\n     \n    // maximmum and minimum investment\n    uint public maxInvestment = 5 ether;\n    uint public minInvestment = 0.1 ether;\n\n    enum State{beforeStart, running , afterEnd, halted}\n    \n    State public icoState;\n\n\n    constructor(address payable _deposit){\n        deposit = _deposit;\n        admin = msg.sender;\n        icoState = State.beforeStart;\n\n    }\n\n    modifier onlyAdmin(){\n        require(msg.sender==admin);\n        _;\n    }\n   // this function only called by admin to stop the ico at any moment\n\n    function halt() public onlyAdmin{\n        icoState= State.halted;\n\n    }\n\n\n    function resume() public onlyAdmin{\n          icoState= State.running;\n    }\n   \n\n\n   // function called only by admin to change the deposit address\n    \n    function changeDepositAddress(address payable newDeposit) public onlyAdmin{\n        deposit = newDeposit;\n    } \n   \n\n   // function to return the state of ICO\n   \n\n   function getCurrentState() public view returns(State){\n      if(icoState==State.halted){\n        return State.halted;\n      }else if(block.timestamp<saleStart){\n        return State.beforeStart;\n      }else if(block.timestamp>= saleStart && block.timestamp <= saleEnd){\n        return State.running;\n      }else{\n        return State.afterEnd;\n      }\n   }\n\n   event Invest(address investor,uint value, uint tokens);\n\n   // main function of the Ico - invest\n   // call- when somebody sends eth to the contract\n   // and recieves cryptos in return\n    \n    function invest() payable public returns(bool){\n         // first check that the ico is in the running state\n      icoState= getCurrentState();\n      require(icoState == State.running);\n      require(msg.value >= minInvestment && msg.value <= maxInvestment);\n       \n       // add the value into raised amount\n      raisedAmount += msg.value;\n      \n      require(raisedAmount <= hardcap);\n\n\n      // calculate the number of tokens user will get for the ether he has just sent\n     \n     uint tokens = msg.value/ tokenPrice;\n\n     // now these tokens will be added to invester balance \n     // and subtracted from the founder balance\n\n     balances[msg.sender] += tokens;\n     balances[founder] -= tokens;\n   \n\n   // now transfer to the deposit address the amount of wei sent to the contract\n   deposit.transfer(msg.value);\n\n    emit Invest(msg.sender,msg.value,tokens);\n    \n\n  return true;\n    }\n\n    // the contract will accept eth that has sent to its address\n    // if there is payable function called recieve\n\nreceive() payable external{\n    // this function will automatically call when someone sends\n    // ether to contact\n    invest();\n}\n\n\n// we  need to override two function - from ERC20 contract\n// transfer token and transferfrom\n\n// with these function it is placing restriction -\n// that if trade start then u can transfer tokens\nfunction transfer(address to,uint tokens) public override returns(bool success){\n   require(block.timestamp>tokenTradeStart);\n    super.transfer(to, tokens); // also can use ERC20.transfer(to,token)\n  \n     return true;\n }\n\n\nfunction tranferFrom(address from,address to,uint tokens) public override returns (bool success){\n     require(block.timestamp>tokenTradeStart);\n       ERC20.tranferFrom(from, to, tokens);\n            return true;\n  }\n\n\n\n\n\n\n}\n\n",
  "sourcePath": "/home/tuba/Work-Folder/BlockChain-Developement/ICO-Dapp-Application/src/contracts/ERC20.sol",
  "compiler": {
    "name": "solc",
    "version": "0.8.16+commit.07a7930e.Emscripten.clang"
  },
  "schemaVersion": "3.4.9",
  "updatedAt": "2022-09-07T18:01:09.890Z",
  "devdoc": {
    "kind": "dev",
    "methods": {},
    "version": 1
  },
  "userdoc": {
    "kind": "user",
    "methods": {},
    "version": 1
  }
}