{
  "contractName": "CryptosICO",
  "abi": [
    {
      "inputs": [
        {
          "internalType": "address payable",
          "name": "_deposit",
          "type": "address"
        }
      ],
      "stateMutability": "nonpayable",
      "type": "constructor"
    },
    {
      "anonymous": false,
      "inputs": [
        {
          "indexed": true,
          "internalType": "address",
          "name": "tokenOwner",
          "type": "address"
        },
        {
          "indexed": true,
          "internalType": "address",
          "name": "spender",
          "type": "address"
        },
        {
          "indexed": false,
          "internalType": "uint256",
          "name": "tokens",
          "type": "uint256"
        }
      ],
      "name": "Approval",
      "type": "event"
    },
    {
      "anonymous": false,
      "inputs": [
        {
          "indexed": false,
          "internalType": "address",
          "name": "investor",
          "type": "address"
        },
        {
          "indexed": false,
          "internalType": "uint256",
          "name": "value",
          "type": "uint256"
        },
        {
          "indexed": false,
          "internalType": "uint256",
          "name": "tokens",
          "type": "uint256"
        }
      ],
      "name": "Invest",
      "type": "event"
    },
    {
      "anonymous": false,
      "inputs": [
        {
          "indexed": true,
          "internalType": "address",
          "name": "from",
          "type": "address"
        },
        {
          "indexed": true,
          "internalType": "address",
          "name": "to",
          "type": "address"
        },
        {
          "indexed": false,
          "internalType": "uint256",
          "name": "token",
          "type": "uint256"
        }
      ],
      "name": "Transfer",
      "type": "event"
    },
    {
      "inputs": [],
      "name": "admin",
      "outputs": [
        {
          "internalType": "address",
          "name": "",
          "type": "address"
        }
      ],
      "stateMutability": "view",
      "type": "function"
    },
    {
      "inputs": [
        {
          "internalType": "address",
          "name": "tokenOwner",
          "type": "address"
        },
        {
          "internalType": "address",
          "name": "spender",
          "type": "address"
        }
      ],
      "name": "allowance",
      "outputs": [
        {
          "internalType": "uint256",
          "name": "remaining",
          "type": "uint256"
        }
      ],
      "stateMutability": "view",
      "type": "function"
    },
    {
      "inputs": [
        {
          "internalType": "address",
          "name": "",
          "type": "address"
        },
        {
          "internalType": "address",
          "name": "",
          "type": "address"
        }
      ],
      "name": "allowed",
      "outputs": [
        {
          "internalType": "uint256",
          "name": "",
          "type": "uint256"
        }
      ],
      "stateMutability": "view",
      "type": "function"
    },
    {
      "inputs": [
        {
          "internalType": "address",
          "name": "spender",
          "type": "address"
        },
        {
          "internalType": "uint256",
          "name": "tokens",
          "type": "uint256"
        }
      ],
      "name": "approve",
      "outputs": [
        {
          "internalType": "bool",
          "name": "success",
          "type": "bool"
        }
      ],
      "stateMutability": "nonpayable",
      "type": "function"
    },
    {
      "inputs": [
        {
          "internalType": "address",
          "name": "tokenOwner",
          "type": "address"
        }
      ],
      "name": "balanceOf",
      "outputs": [
        {
          "internalType": "uint256",
          "name": "balance",
          "type": "uint256"
        }
      ],
      "stateMutability": "view",
      "type": "function"
    },
    {
      "inputs": [
        {
          "internalType": "address",
          "name": "",
          "type": "address"
        }
      ],
      "name": "balances",
      "outputs": [
        {
          "internalType": "uint256",
          "name": "",
          "type": "uint256"
        }
      ],
      "stateMutability": "view",
      "type": "function"
    },
    {
      "inputs": [],
      "name": "decimals",
      "outputs": [
        {
          "internalType": "uint256",
          "name": "",
          "type": "uint256"
        }
      ],
      "stateMutability": "view",
      "type": "function"
    },
    {
      "inputs": [],
      "name": "deposit",
      "outputs": [
        {
          "internalType": "address payable",
          "name": "",
          "type": "address"
        }
      ],
      "stateMutability": "view",
      "type": "function"
    },
    {
      "inputs": [],
      "name": "founder",
      "outputs": [
        {
          "internalType": "address",
          "name": "",
          "type": "address"
        }
      ],
      "stateMutability": "view",
      "type": "function"
    },
    {
      "inputs": [],
      "name": "hardcap",
      "outputs": [
        {
          "internalType": "uint256",
          "name": "",
          "type": "uint256"
        }
      ],
      "stateMutability": "view",
      "type": "function"
    },
    {
      "inputs": [],
      "name": "icoState",
      "outputs": [
        {
          "internalType": "enum CryptosICO.State",
          "name": "",
          "type": "uint8"
        }
      ],
      "stateMutability": "view",
      "type": "function"
    },
    {
      "inputs": [],
      "name": "maxInvestment",
      "outputs": [
        {
          "internalType": "uint256",
          "name": "",
          "type": "uint256"
        }
      ],
      "stateMutability": "view",
      "type": "function"
    },
    {
      "inputs": [],
      "name": "minInvestment",
      "outputs": [
        {
          "internalType": "uint256",
          "name": "",
          "type": "uint256"
        }
      ],
      "stateMutability": "view",
      "type": "function"
    },
    {
      "inputs": [],
      "name": "name",
      "outputs": [
        {
          "internalType": "string",
          "name": "",
          "type": "string"
        }
      ],
      "stateMutability": "view",
      "type": "function"
    },
    {
      "inputs": [],
      "name": "raisedAmount",
      "outputs": [
        {
          "internalType": "uint256",
          "name": "",
          "type": "uint256"
        }
      ],
      "stateMutability": "view",
      "type": "function"
    },
    {
      "inputs": [],
      "name": "saleEnd",
      "outputs": [
        {
          "internalType": "uint256",
          "name": "",
          "type": "uint256"
        }
      ],
      "stateMutability": "view",
      "type": "function"
    },
    {
      "inputs": [],
      "name": "saleStart",
      "outputs": [
        {
          "internalType": "uint256",
          "name": "",
          "type": "uint256"
        }
      ],
      "stateMutability": "view",
      "type": "function"
    },
    {
      "inputs": [],
      "name": "symbol",
      "outputs": [
        {
          "internalType": "string",
          "name": "",
          "type": "string"
        }
      ],
      "stateMutability": "view",
      "type": "function"
    },
    {
      "inputs": [],
      "name": "tokenTradeStart",
      "outputs": [
        {
          "internalType": "uint256",
          "name": "",
          "type": "uint256"
        }
      ],
      "stateMutability": "view",
      "type": "function"
    },
    {
      "inputs": [],
      "name": "totalSupply",
      "outputs": [
        {
          "internalType": "uint256",
          "name": "",
          "type": "uint256"
        }
      ],
      "stateMutability": "view",
      "type": "function"
    },
    {
      "inputs": [
        {
          "internalType": "address",
          "name": "from",
          "type": "address"
        },
        {
          "internalType": "address",
          "name": "to",
          "type": "address"
        },
        {
          "internalType": "uint256",
          "name": "tokens",
          "type": "uint256"
        }
      ],
      "name": "tranferFrom",
      "outputs": [
        {
          "internalType": "bool",
          "name": "success",
          "type": "bool"
        }
      ],
      "stateMutability": "nonpayable",
      "type": "function"
    },
    {
      "inputs": [
        {
          "internalType": "address",
          "name": "to",
          "type": "address"
        },
        {
          "internalType": "uint256",
          "name": "tokens",
          "type": "uint256"
        }
      ],
      "name": "transfer",
      "outputs": [
        {
          "internalType": "bool",
          "name": "success",
          "type": "bool"
        }
      ],
      "stateMutability": "nonpayable",
      "type": "function"
    },
    {
      "stateMutability": "payable",
      "type": "receive"
    },
    {
      "inputs": [],
      "name": "halt",
      "outputs": [],
      "stateMutability": "nonpayable",
      "type": "function"
    },
    {
      "inputs": [],
      "name": "resume",
      "outputs": [],
      "stateMutability": "nonpayable",
      "type": "function"
    },
    {
      "inputs": [
        {
          "internalType": "address payable",
          "name": "newDeposit",
          "type": "address"
        }
      ],
      "name": "changeDepositAddress",
      "outputs": [],
      "stateMutability": "nonpayable",
      "type": "function"
    },
    {
      "inputs": [],
      "name": "getCurrentState",
      "outputs": [
        {
          "internalType": "enum CryptosICO.State",
          "name": "",
          "type": "uint8"
        }
      ],
      "stateMutability": "view",
      "type": "function"
    },
    {
      "inputs": [],
      "name": "invest",
      "outputs": [
        {
          "internalType": "bool",
          "name": "",
          "type": "bool"
        }
      ],
      "stateMutability": "payable",
      "type": "function"
    }
  ],
  "bytecode": "0x60806040526040518060400160405280600781526020017f43727970746f7300000000000000000000000000000000000000000000000000815250600090816200004a91906200051a565b506040518060400160405280600481526020017f4352505400000000000000000000000000000000000000000000000000000000815250600190816200009191906200051a565b50600060025566038d7ea4c68000600955681043561a8829300000600a55601442620000be919062000630565b600c5562093a8042620000d2919062000630565b600d5562093a80600d54620000e8919062000630565b600e55674563918244f40000600f5567016345785d8a00006010553480156200011057600080fd5b50604051620020e3380380620020e38339818101604052810190620001369190620006d5565b620f424060038190555033600460006101000a81548173ffffffffffffffffffffffffffffffffffffffff021916908373ffffffffffffffffffffffffffffffffffffffff16021790555060035460056000600460009054906101000a900473ffffffffffffffffffffffffffffffffffffffff1673ffffffffffffffffffffffffffffffffffffffff1673ffffffffffffffffffffffffffffffffffffffff1681526020019081526020016000208190555080600860006101000a81548173ffffffffffffffffffffffffffffffffffffffff021916908373ffffffffffffffffffffffffffffffffffffffff16021790555033600760006101000a81548173ffffffffffffffffffffffffffffffffffffffff021916908373ffffffffffffffffffffffffffffffffffffffff1602179055506000601160006101000a81548160ff0219169083600381111562000294576200029362000707565b5b02179055505062000736565b600081519050919050565b7f4e487b7100000000000000000000000000000000000000000000000000000000600052604160045260246000fd5b7f4e487b7100000000000000000000000000000000000000000000000000000000600052602260045260246000fd5b600060028204905060018216806200032257607f821691505b602082108103620003385762000337620002da565b5b50919050565b60008190508160005260206000209050919050565b60006020601f8301049050919050565b600082821b905092915050565b600060088302620003a27fffffffffffffffffffffffffffffffffffffffffffffffffffffffffffffffff8262000363565b620003ae868362000363565b95508019841693508086168417925050509392505050565b6000819050919050565b6000819050919050565b6000620003fb620003f5620003ef84620003c6565b620003d0565b620003c6565b9050919050565b6000819050919050565b6200041783620003da565b6200042f620004268262000402565b84845462000370565b825550505050565b600090565b6200044662000437565b620004538184846200040c565b505050565b5b818110156200047b576200046f6000826200043c565b60018101905062000459565b5050565b601f821115620004ca5762000494816200033e565b6200049f8462000353565b81016020851015620004af578190505b620004c7620004be8562000353565b83018262000458565b50505b505050565b600082821c905092915050565b6000620004ef60001984600802620004cf565b1980831691505092915050565b60006200050a8383620004dc565b9150826002028217905092915050565b6200052582620002a0565b67ffffffffffffffff811115620005415762000540620002ab565b5b6200054d825462000309565b6200055a8282856200047f565b600060209050601f8311600181146200059257600084156200057d578287015190505b620005898582620004fc565b865550620005f9565b601f198416620005a2866200033e565b60005b82811015620005cc57848901518255600182019150602085019450602081019050620005a5565b86831015620005ec5784890151620005e8601f891682620004dc565b8355505b6001600288020188555050505b505050505050565b7f4e487b7100000000000000000000000000000000000000000000000000000000600052601160045260246000fd5b60006200063d82620003c6565b91506200064a83620003c6565b925082820190508082111562000665576200066462000601565b5b92915050565b600080fd5b600073ffffffffffffffffffffffffffffffffffffffff82169050919050565b60006200069d8262000670565b9050919050565b620006af8162000690565b8114620006bb57600080fd5b50565b600081519050620006cf81620006a4565b92915050565b600060208284031215620006ee57620006ed6200066b565b5b6000620006fe84828501620006be565b91505092915050565b7f4e487b7100000000000000000000000000000000000000000000000000000000600052602160045260246000fd5b61199d80620007466000396000f3fe60806040526004361061019f5760003560e01c806370a08231116100ec578063c10b93581161008a578063d0e30db011610064578063d0e30db0146105d2578063dd62ed3e146105fd578063e8b5e51f1461063a578063f851a44014610658576101ae565b8063c10b935814610551578063c59ee1dc1461057c578063cc9ba583146105a7576101ae565b806395d89b41116100c657806395d89b4114610493578063a9059cbb146104be578063ab0bcc41146104fb578063b071cbe614610526576101ae565b806370a08231146103ee5780638ac2c6801461042b5780639264a16914610456576101ae565b8063313ce567116101595780634d853ee5116101335780634d853ee5146103465780635c658165146103715780635ed7ca5b146103ae5780636d58c88f146103c5576101ae565b8063313ce567146102c5578063378aa701146102f057806344f387561461031b576101ae565b80622e1316146101b3578063046f7da2146101de57806306fdde03146101f5578063095ea7b31461022057806318160ddd1461025d57806327e235e314610288576101ae565b366101ae576101ac610683565b005b600080fd5b3480156101bf57600080fd5b506101c86108c9565b6040516101d59190611364565b60405180910390f35b3480156101ea57600080fd5b506101f36108cf565b005b34801561020157600080fd5b5061020a610956565b604051610217919061140f565b60405180910390f35b34801561022c57600080fd5b50610247600480360381019061024291906114c0565b6109e4565b604051610254919061151b565b60405180910390f35b34801561026957600080fd5b50610272610b2f565b60405161027f9190611364565b60405180910390f35b34801561029457600080fd5b506102af60048036038101906102aa9190611536565b610b35565b6040516102bc9190611364565b60405180910390f35b3480156102d157600080fd5b506102da610b4d565b6040516102e79190611364565b60405180910390f35b3480156102fc57600080fd5b50610305610b53565b60405161031291906115da565b60405180910390f35b34801561032757600080fd5b50610330610bd5565b60405161033d91906115da565b60405180910390f35b34801561035257600080fd5b5061035b610be8565b6040516103689190611604565b60405180910390f35b34801561037d57600080fd5b506103986004803603810190610393919061161f565b610c0e565b6040516103a59190611364565b60405180910390f35b3480156103ba57600080fd5b506103c3610c33565b005b3480156103d157600080fd5b506103ec60048036038101906103e7919061169d565b610cba565b005b3480156103fa57600080fd5b5061041560048036038101906104109190611536565b610d58565b6040516104229190611364565b60405180910390f35b34801561043757600080fd5b50610440610da1565b60405161044d9190611364565b60405180910390f35b34801561046257600080fd5b5061047d600480360381019061047891906116ca565b610da7565b60405161048a919061151b565b60405180910390f35b34801561049f57600080fd5b506104a861102d565b6040516104b5919061140f565b60405180910390f35b3480156104ca57600080fd5b506104e560048036038101906104e091906114c0565b6110bb565b6040516104f2919061151b565b60405180910390f35b34801561050757600080fd5b5061051061125a565b60405161051d9190611364565b60405180910390f35b34801561053257600080fd5b5061053b611260565b6040516105489190611364565b60405180910390f35b34801561055d57600080fd5b50610566611266565b6040516105739190611364565b60405180910390f35b34801561058857600080fd5b5061059161126c565b60405161059e9190611364565b60405180910390f35b3480156105b357600080fd5b506105bc611272565b6040516105c99190611364565b60405180910390f35b3480156105de57600080fd5b506105e7611278565b6040516105f4919061172c565b60405180910390f35b34801561060957600080fd5b50610624600480360381019061061f919061161f565b61129e565b6040516106319190611364565b60405180910390f35b610642610683565b60405161064f919061151b565b60405180910390f35b34801561066457600080fd5b5061066d611325565b60405161067a9190611604565b60405180910390f35b600061068d610b53565b601160006101000a81548160ff021916908360038111156106b1576106b0611563565b5b0217905550600160038111156106ca576106c9611563565b5b601160009054906101000a900460ff1660038111156106ec576106eb611563565b5b146106f657600080fd5b601054341015801561070a5750600f543411155b61071357600080fd5b34600b60008282546107259190611776565b92505081905550600a54600b54111561073d57600080fd5b60006009543461074d91906117d9565b905080600560003373ffffffffffffffffffffffffffffffffffffffff1673ffffffffffffffffffffffffffffffffffffffff168152602001908152602001600020600082825461079e9190611776565b925050819055508060056000600460009054906101000a900473ffffffffffffffffffffffffffffffffffffffff1673ffffffffffffffffffffffffffffffffffffffff1673ffffffffffffffffffffffffffffffffffffffff1681526020019081526020016000206000828254610816919061180a565b92505081905550600860009054906101000a900473ffffffffffffffffffffffffffffffffffffffff1673ffffffffffffffffffffffffffffffffffffffff166108fc349081150290604051600060405180830381858888f19350505050158015610885573d6000803e3d6000fd5b507f4ae4bd7655e0d350876a23cd90c4227b13db560e34435c6a488150a9c844bf5f3334836040516108b99392919061183e565b60405180910390a1600191505090565b600f5481565b600760009054906101000a900473ffffffffffffffffffffffffffffffffffffffff1673ffffffffffffffffffffffffffffffffffffffff163373ffffffffffffffffffffffffffffffffffffffff161461092957600080fd5b6001601160006101000a81548160ff0219169083600381111561094f5761094e611563565b5b0217905550565b60008054610963906118a4565b80601f016020809104026020016040519081016040528092919081815260200182805461098f906118a4565b80156109dc5780601f106109b1576101008083540402835291602001916109dc565b820191906000526020600020905b8154815290600101906020018083116109bf57829003601f168201915b505050505081565b600081600560003373ffffffffffffffffffffffffffffffffffffffff1673ffffffffffffffffffffffffffffffffffffffff168152602001908152602001600020541015610a3257600080fd5b60008211610a3f57600080fd5b81600660003373ffffffffffffffffffffffffffffffffffffffff1673ffffffffffffffffffffffffffffffffffffffff16815260200190815260200160002060008573ffffffffffffffffffffffffffffffffffffffff1673ffffffffffffffffffffffffffffffffffffffff168152602001908152602001600020819055508273ffffffffffffffffffffffffffffffffffffffff163373ffffffffffffffffffffffffffffffffffffffff167f8c5be1e5ebec7d5bd14f71427d1e84f3dd0314c0f7b2291e5b200ac8c7c3b92584604051610b1d9190611364565b60405180910390a36001905092915050565b60035481565b60056020528060005260406000206000915090505481565b60025481565b6000600380811115610b6857610b67611563565b5b601160009054906101000a900460ff166003811115610b8a57610b89611563565b5b03610b985760039050610bd2565b600c54421015610bab5760009050610bd2565b600c544210158015610bbf5750600d544211155b15610bcd5760019050610bd2565b600290505b90565b601160009054906101000a900460ff1681565b600460009054906101000a900473ffffffffffffffffffffffffffffffffffffffff1681565b6006602052816000526040600020602052806000526040600020600091509150505481565b600760009054906101000a900473ffffffffffffffffffffffffffffffffffffffff1673ffffffffffffffffffffffffffffffffffffffff163373ffffffffffffffffffffffffffffffffffffffff1614610c8d57600080fd5b6003601160006101000a81548160ff02191690836003811115610cb357610cb2611563565b5b0217905550565b600760009054906101000a900473ffffffffffffffffffffffffffffffffffffffff1673ffffffffffffffffffffffffffffffffffffffff163373ffffffffffffffffffffffffffffffffffffffff1614610d1457600080fd5b80600860006101000a81548173ffffffffffffffffffffffffffffffffffffffff021916908373ffffffffffffffffffffffffffffffffffffffff16021790555050565b6000600560008373ffffffffffffffffffffffffffffffffffffffff1673ffffffffffffffffffffffffffffffffffffffff168152602001908152602001600020549050919050565b60105481565b600081600660008673ffffffffffffffffffffffffffffffffffffffff1673ffffffffffffffffffffffffffffffffffffffff16815260200190815260200160002060003373ffffffffffffffffffffffffffffffffffffffff1673ffffffffffffffffffffffffffffffffffffffff168152602001908152602001600020541015610e3257600080fd5b81600560008673ffffffffffffffffffffffffffffffffffffffff1673ffffffffffffffffffffffffffffffffffffffff168152602001908152602001600020541015610e7e57600080fd5b81600560008673ffffffffffffffffffffffffffffffffffffffff1673ffffffffffffffffffffffffffffffffffffffff1681526020019081526020016000206000828254610ecd919061180a565b9250508190555081600660008673ffffffffffffffffffffffffffffffffffffffff1673ffffffffffffffffffffffffffffffffffffffff16815260200190815260200160002060003373ffffffffffffffffffffffffffffffffffffffff1673ffffffffffffffffffffffffffffffffffffffff1681526020019081526020016000206000828254610f60919061180a565b9250508190555081600560008573ffffffffffffffffffffffffffffffffffffffff1673ffffffffffffffffffffffffffffffffffffffff1681526020019081526020016000206000828254610fb69190611776565b925050819055508273ffffffffffffffffffffffffffffffffffffffff168473ffffffffffffffffffffffffffffffffffffffff167fddf252ad1be2c89b69c2b068fc378daa952ba7f163c4a11628f55a4df523b3ef8460405161101a9190611364565b60405180910390a3600190509392505050565b6001805461103a906118a4565b80601f0160208091040260200160405190810160405280929190818152602001828054611066906118a4565b80156110b35780601f10611088576101008083540402835291602001916110b3565b820191906000526020600020905b81548152906001019060200180831161109657829003601f168201915b505050505081565b600081600560003373ffffffffffffffffffffffffffffffffffffffff1673ffffffffffffffffffffffffffffffffffffffff16815260200190815260200160002054101561113f576040517f08c379a000000000000000000000000000000000000000000000000000000000815260040161113690611947565b60405180910390fd5b81600560008573ffffffffffffffffffffffffffffffffffffffff1673ffffffffffffffffffffffffffffffffffffffff168152602001908152602001600020600082825461118e9190611776565b9250508190555081600560003373ffffffffffffffffffffffffffffffffffffffff1673ffffffffffffffffffffffffffffffffffffffff16815260200190815260200160002060008282546111e4919061180a565b925050819055508273ffffffffffffffffffffffffffffffffffffffff163373ffffffffffffffffffffffffffffffffffffffff167fddf252ad1be2c89b69c2b068fc378daa952ba7f163c4a11628f55a4df523b3ef846040516112489190611364565b60405180910390a36001905092915050565b600c5481565b600a5481565b600d5481565b600b5481565b600e5481565b600860009054906101000a900473ffffffffffffffffffffffffffffffffffffffff1681565b6000600660008473ffffffffffffffffffffffffffffffffffffffff1673ffffffffffffffffffffffffffffffffffffffff16815260200190815260200160002060008373ffffffffffffffffffffffffffffffffffffffff1673ffffffffffffffffffffffffffffffffffffffff16815260200190815260200160002054905092915050565b600760009054906101000a900473ffffffffffffffffffffffffffffffffffffffff1681565b6000819050919050565b61135e8161134b565b82525050565b60006020820190506113796000830184611355565b92915050565b600081519050919050565b600082825260208201905092915050565b60005b838110156113b957808201518184015260208101905061139e565b60008484015250505050565b6000601f19601f8301169050919050565b60006113e18261137f565b6113eb818561138a565b93506113fb81856020860161139b565b611404816113c5565b840191505092915050565b6000602082019050818103600083015261142981846113d6565b905092915050565b600080fd5b600073ffffffffffffffffffffffffffffffffffffffff82169050919050565b600061146182611436565b9050919050565b61147181611456565b811461147c57600080fd5b50565b60008135905061148e81611468565b92915050565b61149d8161134b565b81146114a857600080fd5b50565b6000813590506114ba81611494565b92915050565b600080604083850312156114d7576114d6611431565b5b60006114e58582860161147f565b92505060206114f6858286016114ab565b9150509250929050565b60008115159050919050565b61151581611500565b82525050565b6000602082019050611530600083018461150c565b92915050565b60006020828403121561154c5761154b611431565b5b600061155a8482850161147f565b91505092915050565b7f4e487b7100000000000000000000000000000000000000000000000000000000600052602160045260246000fd5b600481106115a3576115a2611563565b5b50565b60008190506115b482611592565b919050565b60006115c4826115a6565b9050919050565b6115d4816115b9565b82525050565b60006020820190506115ef60008301846115cb565b92915050565b6115fe81611456565b82525050565b600060208201905061161960008301846115f5565b92915050565b6000806040838503121561163657611635611431565b5b60006116448582860161147f565b92505060206116558582860161147f565b9150509250929050565b600061166a82611436565b9050919050565b61167a8161165f565b811461168557600080fd5b50565b60008135905061169781611671565b92915050565b6000602082840312156116b3576116b2611431565b5b60006116c184828501611688565b91505092915050565b6000806000606084860312156116e3576116e2611431565b5b60006116f18682870161147f565b93505060206117028682870161147f565b9250506040611713868287016114ab565b9150509250925092565b6117268161165f565b82525050565b6000602082019050611741600083018461171d565b92915050565b7f4e487b7100000000000000000000000000000000000000000000000000000000600052601160045260246000fd5b60006117818261134b565b915061178c8361134b565b92508282019050808211156117a4576117a3611747565b5b92915050565b7f4e487b7100000000000000000000000000000000000000000000000000000000600052601260045260246000fd5b60006117e48261134b565b91506117ef8361134b565b9250826117ff576117fe6117aa565b5b828204905092915050565b60006118158261134b565b91506118208361134b565b925082820390508181111561183857611837611747565b5b92915050565b600060608201905061185360008301866115f5565b6118606020830185611355565b61186d6040830184611355565b949350505050565b7f4e487b7100000000000000000000000000000000000000000000000000000000600052602260045260246000fd5b600060028204905060018216806118bc57607f821691505b6020821081036118cf576118ce611875565b5b50919050565b7f6e6f7420656e6f7567682062616c616e636520617661696c61626c6520746f2060008201527f7472616e66657200000000000000000000000000000000000000000000000000602082015250565b600061193160278361138a565b915061193c826118d5565b604082019050919050565b6000602082019050818103600083015261196081611924565b905091905056fea264697066735822122041cca84bf8e48af86a9fe290dd8efcc7dc5693790116dea63f760cdea167f2c864736f6c63430008100033",
  "immutableReferences": {},
  "source": "// SPDX-License-Identifier: GPL-3.0\npragma solidity >=0.7.0 <0.9.0;\ninterface ERC20Interface{\n    function totalSupply() external view returns(uint);\n    function balanceOf(address tokenOwner) external view returns (uint balance);\n    function transfer(address to,uint tokens) external returns(bool success);\n\n\n     function allowance(address tokenOwner,address spender) external view returns(uint remaining);\n     function approve(address spender,uint tokens) external returns (bool success);\n     function tranferFrom(address from,address to,uint tokens) external returns (bool success);\n\n\n    event Transfer(address indexed from, address indexed to, uint token);\n    event Approval(address indexed tokenOwner,address indexed spender,uint tokens);\n\n\n\n}\n\n\ncontract ERC20 is ERC20Interface{\n    \n    string public name = \"Cryptos\";\n    string public symbol= \"CRPT\";\n    uint public decimals = 0; //18\n    // total supply - represent the toral number of tokens\n    uint public override totalSupply; // a getter function will be created bcz the variable is public\n\n    address public founder;\n    // map to store each address and no of tokens with respect to it\n    mapping(address=>uint) public balances;\n   \n\n   constructor(){\n    totalSupply= 1000000;\n    founder = msg.sender;\n    balances[founder] = totalSupply;\n   }\n\n\n// first - this mapping includes the accounts approved tp withdraw from a \n// account together with the withdrawal sum allowed for wach of them\n\n// first mapping is the key - the address of the token holder\n// second map inside it - is representing the addresses that are allowed to transfer\n\n   mapping(address=>mapping(address=>uint)) public allowed;\n\n\n      function balanceOf(address tokenOwner) public view override returns (uint balance){\n        return balances[tokenOwner];\n      }\n  \n function transfer(address to,uint tokens) public override returns(bool success){\n      \n       require(balances[msg.sender]>=tokens,\"not enough balance available to tranfer\");\n       \n       balances[to] +=tokens;\n       balances[msg.sender] -= tokens;\n\n       emit Transfer(msg.sender, to, tokens);\n       return true;\n }\n\n\n\n // it allows the spender to withdraw and transfer from the\n // owners account multiple times upto the allowance\n // this function will also change the current allowance\n // func - will only be called by the account that was allowed to\n // transfer token from the holders accounts to his own or to another\n\n \n\n function tranferFrom(address from,address to,uint tokens) public override returns (bool success){\n    // checking the allowance of curent user - who call this function\n    // is greater and equal to tokens\n    \n    require(allowed[from][msg.sender]>=tokens);\n    require(balances[from]>= tokens);\n    balances[from] -= tokens;\n    allowed[from][msg.sender] -=tokens;\n    balances[to] += tokens;\n    emit Transfer(from, to, tokens);\n    return true;\n  }\n   function allowance(address tokenOwner,address spender) public view override returns(uint remaining){\n    return allowed[tokenOwner][spender];\n   }\n\n\n// this functiokn will be called by token owner to set the allowance\n// which is the ammount that can be spent by the spender of this account\n\n  function approve(address spender,uint tokens) public override returns (bool success){\n     require(balances[msg.sender] >= tokens);\n     require(tokens>0); \n     allowed[msg.sender][spender] = tokens;\n  \n     emit Approval(msg.sender, spender, tokens);\n     return true;\n  }\n     \n\n    \n\n\n}\n\ncontract CryptosICO is ERC20{\n    // admin - who deploys the contract\n    // -if any emergency or can change the deposit if it gets compromised\n\n     address public admin;\n\n     // investor will send eth to contract address\n     // the ether will automictaically transfer to deposit address\n     // and the cryptos will be added to the balance of investor\n     address payable public deposit;\n\n     // set token price - 1000crypt for 1 ether\n     uint tokenPrice = 0.001 ether;\n\n     // hardcap - maximum amount of ether that can be invested\n     uint public hardcap = 300 ether;\n\n     // raisedAmount - total amount of ether sent to the ICO\n     uint public raisedAmount;\n\n   // iCo will start in 20 seconds after the deployment\n     uint public saleStart = block.timestamp + 20;\n\n     uint public saleEnd = block.timestamp + 604800;\n\n    // set token to tranfer only after a time after the Ico\n    // ends so that the early investors can not dump the tokens on the market, \n    // causing the price to collapse\n    uint public tokenTradeStart = saleEnd + 604800; // transferable in a week after sale\n     \n    // maximmum and minimum investment\n    uint public maxInvestment = 5 ether;\n    uint public minInvestment = 0.1 ether;\n\n    enum State{beforeStart, running , afterEnd, halted}\n    \n    State public icoState;\n\n\n    constructor(address payable _deposit){\n        deposit = _deposit;\n        admin = msg.sender;\n        icoState = State.beforeStart;\n\n    }\n\n    modifier onlyAdmin(){\n        require(msg.sender==admin);\n        _;\n    }\n   // this function only called by admin to stop the ico at any moment\n\n    function halt() public onlyAdmin{\n        icoState= State.halted;\n\n    }\n\n\n    function resume() public onlyAdmin{\n          icoState= State.running;\n    }\n   \n\n\n   // function called only by admin to change the deposit address\n    \n    function changeDepositAddress(address payable newDeposit) public onlyAdmin{\n        deposit = newDeposit;\n    } \n   \n\n   // function to return the state of ICO\n   \n\n   function getCurrentState() public view returns(State){\n      if(icoState==State.halted){\n        return State.halted;\n      }else if(block.timestamp<saleStart){\n        return State.beforeStart;\n      }else if(block.timestamp>= saleStart && block.timestamp <= saleEnd){\n        return State.running;\n      }else{\n        return State.afterEnd;\n      }\n   }\n\n   event Invest(address investor,uint value, uint tokens);\n\n   // main function of the Ico - invest\n   // call- when somebody sends eth to the contract\n   // and recieves cryptos in return\n    \n    function invest() payable public returns(bool){\n         // first check that the ico is in the running state\n      icoState= getCurrentState();\n      require(icoState == State.running);\n      require(msg.value >= minInvestment && msg.value <= maxInvestment);\n       \n       // add the value into raised amount\n      raisedAmount += msg.value;\n      \n      require(raisedAmount <= hardcap);\n\n\n      // calculate the number of tokens user will get for the ether he has just sent\n     \n     uint tokens = msg.value/ tokenPrice;\n\n     // now these tokens will be added to invester balance \n     // and subtracted from the founder balance\n\n     balances[msg.sender] += tokens;\n     balances[founder] -= tokens;\n   \n\n   // now transfer to the deposit address the amount of wei sent to the contract\n   deposit.transfer(msg.value);\n\n    emit Invest(msg.sender,msg.value,tokens);\n    \n\n  return true;\n    }\n\n    // the contract will accept eth that has sent to its address\n    // if there is payable function called recieve\n\nreceive() payable external{\n    // this function will automatically call when someone sends\n    // ether to contact\n    invest();\n}\n\n\n\n\n}\n\n",
  "sourcePath": "/home/tuba/Work-Folder/BlockChain-Developement/ICO-Dapp-Application/src/contracts/ERC20.sol",
  "compiler": {
    "name": "solc",
    "version": "0.8.16+commit.07a7930e.Emscripten.clang"
  },
  "schemaVersion": "3.4.9",
  "updatedAt": "2022-09-07T13:16:48.521Z",
  "devdoc": {
    "kind": "dev",
    "methods": {},
    "version": 1
  },
  "userdoc": {
    "kind": "user",
    "methods": {},
    "version": 1
  }
}