{
  "contractName": "CryptosICO",
  "abi": [
    {
      "inputs": [
        {
          "internalType": "address payable",
          "name": "_deposit",
          "type": "address"
        }
      ],
      "stateMutability": "nonpayable",
      "type": "constructor"
    },
    {
      "anonymous": false,
      "inputs": [
        {
          "indexed": true,
          "internalType": "address",
          "name": "tokenOwner",
          "type": "address"
        },
        {
          "indexed": true,
          "internalType": "address",
          "name": "spender",
          "type": "address"
        },
        {
          "indexed": false,
          "internalType": "uint256",
          "name": "tokens",
          "type": "uint256"
        }
      ],
      "name": "Approval",
      "type": "event"
    },
    {
      "anonymous": false,
      "inputs": [
        {
          "indexed": true,
          "internalType": "address",
          "name": "from",
          "type": "address"
        },
        {
          "indexed": true,
          "internalType": "address",
          "name": "to",
          "type": "address"
        },
        {
          "indexed": false,
          "internalType": "uint256",
          "name": "token",
          "type": "uint256"
        }
      ],
      "name": "Transfer",
      "type": "event"
    },
    {
      "inputs": [],
      "name": "admin",
      "outputs": [
        {
          "internalType": "address",
          "name": "",
          "type": "address"
        }
      ],
      "stateMutability": "view",
      "type": "function"
    },
    {
      "inputs": [
        {
          "internalType": "address",
          "name": "tokenOwner",
          "type": "address"
        },
        {
          "internalType": "address",
          "name": "spender",
          "type": "address"
        }
      ],
      "name": "allowance",
      "outputs": [
        {
          "internalType": "uint256",
          "name": "remaining",
          "type": "uint256"
        }
      ],
      "stateMutability": "view",
      "type": "function"
    },
    {
      "inputs": [
        {
          "internalType": "address",
          "name": "",
          "type": "address"
        },
        {
          "internalType": "address",
          "name": "",
          "type": "address"
        }
      ],
      "name": "allowed",
      "outputs": [
        {
          "internalType": "uint256",
          "name": "",
          "type": "uint256"
        }
      ],
      "stateMutability": "view",
      "type": "function"
    },
    {
      "inputs": [
        {
          "internalType": "address",
          "name": "spender",
          "type": "address"
        },
        {
          "internalType": "uint256",
          "name": "tokens",
          "type": "uint256"
        }
      ],
      "name": "approve",
      "outputs": [
        {
          "internalType": "bool",
          "name": "success",
          "type": "bool"
        }
      ],
      "stateMutability": "nonpayable",
      "type": "function"
    },
    {
      "inputs": [
        {
          "internalType": "address",
          "name": "tokenOwner",
          "type": "address"
        }
      ],
      "name": "balanceOf",
      "outputs": [
        {
          "internalType": "uint256",
          "name": "balance",
          "type": "uint256"
        }
      ],
      "stateMutability": "view",
      "type": "function"
    },
    {
      "inputs": [
        {
          "internalType": "address",
          "name": "",
          "type": "address"
        }
      ],
      "name": "balances",
      "outputs": [
        {
          "internalType": "uint256",
          "name": "",
          "type": "uint256"
        }
      ],
      "stateMutability": "view",
      "type": "function"
    },
    {
      "inputs": [],
      "name": "decimals",
      "outputs": [
        {
          "internalType": "uint256",
          "name": "",
          "type": "uint256"
        }
      ],
      "stateMutability": "view",
      "type": "function"
    },
    {
      "inputs": [],
      "name": "deposit",
      "outputs": [
        {
          "internalType": "address payable",
          "name": "",
          "type": "address"
        }
      ],
      "stateMutability": "view",
      "type": "function"
    },
    {
      "inputs": [],
      "name": "founder",
      "outputs": [
        {
          "internalType": "address",
          "name": "",
          "type": "address"
        }
      ],
      "stateMutability": "view",
      "type": "function"
    },
    {
      "inputs": [],
      "name": "hardcap",
      "outputs": [
        {
          "internalType": "uint256",
          "name": "",
          "type": "uint256"
        }
      ],
      "stateMutability": "view",
      "type": "function"
    },
    {
      "inputs": [],
      "name": "icoState",
      "outputs": [
        {
          "internalType": "enum CryptosICO.State",
          "name": "",
          "type": "uint8"
        }
      ],
      "stateMutability": "view",
      "type": "function"
    },
    {
      "inputs": [],
      "name": "maxInvestment",
      "outputs": [
        {
          "internalType": "uint256",
          "name": "",
          "type": "uint256"
        }
      ],
      "stateMutability": "view",
      "type": "function"
    },
    {
      "inputs": [],
      "name": "minInvestment",
      "outputs": [
        {
          "internalType": "uint256",
          "name": "",
          "type": "uint256"
        }
      ],
      "stateMutability": "view",
      "type": "function"
    },
    {
      "inputs": [],
      "name": "name",
      "outputs": [
        {
          "internalType": "string",
          "name": "",
          "type": "string"
        }
      ],
      "stateMutability": "view",
      "type": "function"
    },
    {
      "inputs": [],
      "name": "raisedAmount",
      "outputs": [
        {
          "internalType": "uint256",
          "name": "",
          "type": "uint256"
        }
      ],
      "stateMutability": "view",
      "type": "function"
    },
    {
      "inputs": [],
      "name": "saleEnd",
      "outputs": [
        {
          "internalType": "uint256",
          "name": "",
          "type": "uint256"
        }
      ],
      "stateMutability": "view",
      "type": "function"
    },
    {
      "inputs": [],
      "name": "saleStart",
      "outputs": [
        {
          "internalType": "uint256",
          "name": "",
          "type": "uint256"
        }
      ],
      "stateMutability": "view",
      "type": "function"
    },
    {
      "inputs": [],
      "name": "symbol",
      "outputs": [
        {
          "internalType": "string",
          "name": "",
          "type": "string"
        }
      ],
      "stateMutability": "view",
      "type": "function"
    },
    {
      "inputs": [],
      "name": "tokenTradeStart",
      "outputs": [
        {
          "internalType": "uint256",
          "name": "",
          "type": "uint256"
        }
      ],
      "stateMutability": "view",
      "type": "function"
    },
    {
      "inputs": [],
      "name": "totalSupply",
      "outputs": [
        {
          "internalType": "uint256",
          "name": "",
          "type": "uint256"
        }
      ],
      "stateMutability": "view",
      "type": "function"
    },
    {
      "inputs": [
        {
          "internalType": "address",
          "name": "from",
          "type": "address"
        },
        {
          "internalType": "address",
          "name": "to",
          "type": "address"
        },
        {
          "internalType": "uint256",
          "name": "tokens",
          "type": "uint256"
        }
      ],
      "name": "tranferFrom",
      "outputs": [
        {
          "internalType": "bool",
          "name": "success",
          "type": "bool"
        }
      ],
      "stateMutability": "nonpayable",
      "type": "function"
    },
    {
      "inputs": [
        {
          "internalType": "address",
          "name": "to",
          "type": "address"
        },
        {
          "internalType": "uint256",
          "name": "tokens",
          "type": "uint256"
        }
      ],
      "name": "transfer",
      "outputs": [
        {
          "internalType": "bool",
          "name": "success",
          "type": "bool"
        }
      ],
      "stateMutability": "nonpayable",
      "type": "function"
    },
    {
      "inputs": [],
      "name": "halt",
      "outputs": [],
      "stateMutability": "nonpayable",
      "type": "function"
    },
    {
      "inputs": [],
      "name": "resume",
      "outputs": [],
      "stateMutability": "nonpayable",
      "type": "function"
    },
    {
      "inputs": [
        {
          "internalType": "address payable",
          "name": "newDeposit",
          "type": "address"
        }
      ],
      "name": "changeDepositAddress",
      "outputs": [],
      "stateMutability": "nonpayable",
      "type": "function"
    },
    {
      "inputs": [],
      "name": "getCurrentState",
      "outputs": [
        {
          "internalType": "enum CryptosICO.State",
          "name": "",
          "type": "uint8"
        }
      ],
      "stateMutability": "view",
      "type": "function"
    }
  ],
  "bytecode": "0x60806040526040518060400160405280600781526020017f43727970746f7300000000000000000000000000000000000000000000000000815250600090816200004a91906200051a565b506040518060400160405280600481526020017f4352505400000000000000000000000000000000000000000000000000000000815250600190816200009191906200051a565b50600060025566038d7ea4c68000600955681043561a8829300000600a55601442620000be919062000630565b600c5562093a8042620000d2919062000630565b600d5562093a80600d54620000e8919062000630565b600e55674563918244f40000600f5567016345785d8a00006010553480156200011057600080fd5b5060405162001c7538038062001c758339818101604052810190620001369190620006d5565b620f424060038190555033600460006101000a81548173ffffffffffffffffffffffffffffffffffffffff021916908373ffffffffffffffffffffffffffffffffffffffff16021790555060035460056000600460009054906101000a900473ffffffffffffffffffffffffffffffffffffffff1673ffffffffffffffffffffffffffffffffffffffff1673ffffffffffffffffffffffffffffffffffffffff1681526020019081526020016000208190555080600860006101000a81548173ffffffffffffffffffffffffffffffffffffffff021916908373ffffffffffffffffffffffffffffffffffffffff16021790555033600760006101000a81548173ffffffffffffffffffffffffffffffffffffffff021916908373ffffffffffffffffffffffffffffffffffffffff1602179055506000601160006101000a81548160ff0219169083600381111562000294576200029362000707565b5b02179055505062000736565b600081519050919050565b7f4e487b7100000000000000000000000000000000000000000000000000000000600052604160045260246000fd5b7f4e487b7100000000000000000000000000000000000000000000000000000000600052602260045260246000fd5b600060028204905060018216806200032257607f821691505b602082108103620003385762000337620002da565b5b50919050565b60008190508160005260206000209050919050565b60006020601f8301049050919050565b600082821b905092915050565b600060088302620003a27fffffffffffffffffffffffffffffffffffffffffffffffffffffffffffffffff8262000363565b620003ae868362000363565b95508019841693508086168417925050509392505050565b6000819050919050565b6000819050919050565b6000620003fb620003f5620003ef84620003c6565b620003d0565b620003c6565b9050919050565b6000819050919050565b6200041783620003da565b6200042f620004268262000402565b84845462000370565b825550505050565b600090565b6200044662000437565b620004538184846200040c565b505050565b5b818110156200047b576200046f6000826200043c565b60018101905062000459565b5050565b601f821115620004ca5762000494816200033e565b6200049f8462000353565b81016020851015620004af578190505b620004c7620004be8562000353565b83018262000458565b50505b505050565b600082821c905092915050565b6000620004ef60001984600802620004cf565b1980831691505092915050565b60006200050a8383620004dc565b9150826002028217905092915050565b6200052582620002a0565b67ffffffffffffffff811115620005415762000540620002ab565b5b6200054d825462000309565b6200055a8282856200047f565b600060209050601f8311600181146200059257600084156200057d578287015190505b620005898582620004fc565b865550620005f9565b601f198416620005a2866200033e565b60005b82811015620005cc57848901518255600182019150602085019450602081019050620005a5565b86831015620005ec5784890151620005e8601f891682620004dc565b8355505b6001600288020188555050505b505050505050565b7f4e487b7100000000000000000000000000000000000000000000000000000000600052601160045260246000fd5b60006200063d82620003c6565b91506200064a83620003c6565b925082820190508082111562000665576200066462000601565b5b92915050565b600080fd5b600073ffffffffffffffffffffffffffffffffffffffff82169050919050565b60006200069d8262000670565b9050919050565b620006af8162000690565b8114620006bb57600080fd5b50565b600081519050620006cf81620006a4565b92915050565b600060208284031215620006ee57620006ed6200066b565b5b6000620006fe84828501620006be565b91505092915050565b7f4e487b7100000000000000000000000000000000000000000000000000000000600052602160045260246000fd5b61152f80620007466000396000f3fe608060405234801561001057600080fd5b506004361061018d5760003560e01c806370a08231116100de578063b071cbe611610097578063cc9ba58311610071578063cc9ba58314610468578063d0e30db014610486578063dd62ed3e146104a4578063f851a440146104d45761018d565b8063b071cbe61461040e578063c10b93581461042c578063c59ee1dc1461044a5761018d565b806370a08231146103245780638ac2c680146103545780639264a1691461037257806395d89b41146103a2578063a9059cbb146103c0578063ab0bcc41146103f05761018d565b8063313ce5671161014b5780634d853ee5116101255780634d853ee5146102b05780635c658165146102ce5780635ed7ca5b146102fe5780636d58c88f146103085761018d565b8063313ce56714610256578063378aa7011461027457806344f38756146102925761018d565b80622e131614610192578063046f7da2146101b057806306fdde03146101ba578063095ea7b3146101d857806318160ddd1461020857806327e235e314610226575b600080fd5b61019a6104f2565b6040516101a79190610f8d565b60405180910390f35b6101b86104f8565b005b6101c261057f565b6040516101cf9190611038565b60405180910390f35b6101f260048036038101906101ed91906110e9565b61060d565b6040516101ff9190611144565b60405180910390f35b610210610758565b60405161021d9190610f8d565b60405180910390f35b610240600480360381019061023b919061115f565b61075e565b60405161024d9190610f8d565b60405180910390f35b61025e610776565b60405161026b9190610f8d565b60405180910390f35b61027c61077c565b6040516102899190611203565b60405180910390f35b61029a6107fe565b6040516102a79190611203565b60405180910390f35b6102b8610811565b6040516102c5919061122d565b60405180910390f35b6102e860048036038101906102e39190611248565b610837565b6040516102f59190610f8d565b60405180910390f35b61030661085c565b005b610322600480360381019061031d91906112c6565b6108e3565b005b61033e6004803603810190610339919061115f565b610981565b60405161034b9190610f8d565b60405180910390f35b61035c6109ca565b6040516103699190610f8d565b60405180910390f35b61038c600480360381019061038791906112f3565b6109d0565b6040516103999190611144565b60405180910390f35b6103aa610c56565b6040516103b79190611038565b60405180910390f35b6103da60048036038101906103d591906110e9565b610ce4565b6040516103e79190611144565b60405180910390f35b6103f8610e83565b6040516104059190610f8d565b60405180910390f35b610416610e89565b6040516104239190610f8d565b60405180910390f35b610434610e8f565b6040516104419190610f8d565b60405180910390f35b610452610e95565b60405161045f9190610f8d565b60405180910390f35b610470610e9b565b60405161047d9190610f8d565b60405180910390f35b61048e610ea1565b60405161049b9190611355565b60405180910390f35b6104be60048036038101906104b99190611248565b610ec7565b6040516104cb9190610f8d565b60405180910390f35b6104dc610f4e565b6040516104e9919061122d565b60405180910390f35b600f5481565b600760009054906101000a900473ffffffffffffffffffffffffffffffffffffffff1673ffffffffffffffffffffffffffffffffffffffff163373ffffffffffffffffffffffffffffffffffffffff161461055257600080fd5b6001601160006101000a81548160ff021916908360038111156105785761057761118c565b5b0217905550565b6000805461058c9061139f565b80601f01602080910402602001604051908101604052809291908181526020018280546105b89061139f565b80156106055780601f106105da57610100808354040283529160200191610605565b820191906000526020600020905b8154815290600101906020018083116105e857829003601f168201915b505050505081565b600081600560003373ffffffffffffffffffffffffffffffffffffffff1673ffffffffffffffffffffffffffffffffffffffff16815260200190815260200160002054101561065b57600080fd5b6000821161066857600080fd5b81600660003373ffffffffffffffffffffffffffffffffffffffff1673ffffffffffffffffffffffffffffffffffffffff16815260200190815260200160002060008573ffffffffffffffffffffffffffffffffffffffff1673ffffffffffffffffffffffffffffffffffffffff168152602001908152602001600020819055508273ffffffffffffffffffffffffffffffffffffffff163373ffffffffffffffffffffffffffffffffffffffff167f8c5be1e5ebec7d5bd14f71427d1e84f3dd0314c0f7b2291e5b200ac8c7c3b925846040516107469190610f8d565b60405180910390a36001905092915050565b60035481565b60056020528060005260406000206000915090505481565b60025481565b60006003808111156107915761079061118c565b5b601160009054906101000a900460ff1660038111156107b3576107b261118c565b5b036107c157600390506107fb565b600c544210156107d457600090506107fb565b600c5442101580156107e85750600d544211155b156107f657600190506107fb565b600290505b90565b601160009054906101000a900460ff1681565b600460009054906101000a900473ffffffffffffffffffffffffffffffffffffffff1681565b6006602052816000526040600020602052806000526040600020600091509150505481565b600760009054906101000a900473ffffffffffffffffffffffffffffffffffffffff1673ffffffffffffffffffffffffffffffffffffffff163373ffffffffffffffffffffffffffffffffffffffff16146108b657600080fd5b6003601160006101000a81548160ff021916908360038111156108dc576108db61118c565b5b0217905550565b600760009054906101000a900473ffffffffffffffffffffffffffffffffffffffff1673ffffffffffffffffffffffffffffffffffffffff163373ffffffffffffffffffffffffffffffffffffffff161461093d57600080fd5b80600860006101000a81548173ffffffffffffffffffffffffffffffffffffffff021916908373ffffffffffffffffffffffffffffffffffffffff16021790555050565b6000600560008373ffffffffffffffffffffffffffffffffffffffff1673ffffffffffffffffffffffffffffffffffffffff168152602001908152602001600020549050919050565b60105481565b600081600660008673ffffffffffffffffffffffffffffffffffffffff1673ffffffffffffffffffffffffffffffffffffffff16815260200190815260200160002060003373ffffffffffffffffffffffffffffffffffffffff1673ffffffffffffffffffffffffffffffffffffffff168152602001908152602001600020541015610a5b57600080fd5b81600560008673ffffffffffffffffffffffffffffffffffffffff1673ffffffffffffffffffffffffffffffffffffffff168152602001908152602001600020541015610aa757600080fd5b81600560008673ffffffffffffffffffffffffffffffffffffffff1673ffffffffffffffffffffffffffffffffffffffff1681526020019081526020016000206000828254610af691906113ff565b9250508190555081600660008673ffffffffffffffffffffffffffffffffffffffff1673ffffffffffffffffffffffffffffffffffffffff16815260200190815260200160002060003373ffffffffffffffffffffffffffffffffffffffff1673ffffffffffffffffffffffffffffffffffffffff1681526020019081526020016000206000828254610b8991906113ff565b9250508190555081600560008573ffffffffffffffffffffffffffffffffffffffff1673ffffffffffffffffffffffffffffffffffffffff1681526020019081526020016000206000828254610bdf9190611433565b925050819055508273ffffffffffffffffffffffffffffffffffffffff168473ffffffffffffffffffffffffffffffffffffffff167fddf252ad1be2c89b69c2b068fc378daa952ba7f163c4a11628f55a4df523b3ef84604051610c439190610f8d565b60405180910390a3600190509392505050565b60018054610c639061139f565b80601f0160208091040260200160405190810160405280929190818152602001828054610c8f9061139f565b8015610cdc5780601f10610cb157610100808354040283529160200191610cdc565b820191906000526020600020905b815481529060010190602001808311610cbf57829003601f168201915b505050505081565b600081600560003373ffffffffffffffffffffffffffffffffffffffff1673ffffffffffffffffffffffffffffffffffffffff168152602001908152602001600020541015610d68576040517f08c379a0000000000000000000000000000000000000000000000000000000008152600401610d5f906114d9565b60405180910390fd5b81600560008573ffffffffffffffffffffffffffffffffffffffff1673ffffffffffffffffffffffffffffffffffffffff1681526020019081526020016000206000828254610db79190611433565b9250508190555081600560003373ffffffffffffffffffffffffffffffffffffffff1673ffffffffffffffffffffffffffffffffffffffff1681526020019081526020016000206000828254610e0d91906113ff565b925050819055508273ffffffffffffffffffffffffffffffffffffffff163373ffffffffffffffffffffffffffffffffffffffff167fddf252ad1be2c89b69c2b068fc378daa952ba7f163c4a11628f55a4df523b3ef84604051610e719190610f8d565b60405180910390a36001905092915050565b600c5481565b600a5481565b600d5481565b600b5481565b600e5481565b600860009054906101000a900473ffffffffffffffffffffffffffffffffffffffff1681565b6000600660008473ffffffffffffffffffffffffffffffffffffffff1673ffffffffffffffffffffffffffffffffffffffff16815260200190815260200160002060008373ffffffffffffffffffffffffffffffffffffffff1673ffffffffffffffffffffffffffffffffffffffff16815260200190815260200160002054905092915050565b600760009054906101000a900473ffffffffffffffffffffffffffffffffffffffff1681565b6000819050919050565b610f8781610f74565b82525050565b6000602082019050610fa26000830184610f7e565b92915050565b600081519050919050565b600082825260208201905092915050565b60005b83811015610fe2578082015181840152602081019050610fc7565b60008484015250505050565b6000601f19601f8301169050919050565b600061100a82610fa8565b6110148185610fb3565b9350611024818560208601610fc4565b61102d81610fee565b840191505092915050565b600060208201905081810360008301526110528184610fff565b905092915050565b600080fd5b600073ffffffffffffffffffffffffffffffffffffffff82169050919050565b600061108a8261105f565b9050919050565b61109a8161107f565b81146110a557600080fd5b50565b6000813590506110b781611091565b92915050565b6110c681610f74565b81146110d157600080fd5b50565b6000813590506110e3816110bd565b92915050565b60008060408385031215611100576110ff61105a565b5b600061110e858286016110a8565b925050602061111f858286016110d4565b9150509250929050565b60008115159050919050565b61113e81611129565b82525050565b60006020820190506111596000830184611135565b92915050565b6000602082840312156111755761117461105a565b5b6000611183848285016110a8565b91505092915050565b7f4e487b7100000000000000000000000000000000000000000000000000000000600052602160045260246000fd5b600481106111cc576111cb61118c565b5b50565b60008190506111dd826111bb565b919050565b60006111ed826111cf565b9050919050565b6111fd816111e2565b82525050565b600060208201905061121860008301846111f4565b92915050565b6112278161107f565b82525050565b6000602082019050611242600083018461121e565b92915050565b6000806040838503121561125f5761125e61105a565b5b600061126d858286016110a8565b925050602061127e858286016110a8565b9150509250929050565b60006112938261105f565b9050919050565b6112a381611288565b81146112ae57600080fd5b50565b6000813590506112c08161129a565b92915050565b6000602082840312156112dc576112db61105a565b5b60006112ea848285016112b1565b91505092915050565b60008060006060848603121561130c5761130b61105a565b5b600061131a868287016110a8565b935050602061132b868287016110a8565b925050604061133c868287016110d4565b9150509250925092565b61134f81611288565b82525050565b600060208201905061136a6000830184611346565b92915050565b7f4e487b7100000000000000000000000000000000000000000000000000000000600052602260045260246000fd5b600060028204905060018216806113b757607f821691505b6020821081036113ca576113c9611370565b5b50919050565b7f4e487b7100000000000000000000000000000000000000000000000000000000600052601160045260246000fd5b600061140a82610f74565b915061141583610f74565b925082820390508181111561142d5761142c6113d0565b5b92915050565b600061143e82610f74565b915061144983610f74565b9250828201905080821115611461576114606113d0565b5b92915050565b7f6e6f7420656e6f7567682062616c616e636520617661696c61626c6520746f2060008201527f7472616e66657200000000000000000000000000000000000000000000000000602082015250565b60006114c3602783610fb3565b91506114ce82611467565b604082019050919050565b600060208201905081810360008301526114f2816114b6565b905091905056fea26469706673582212203bcc1d9266df13347e17de3d3c18792dc2ddcc147a8bb1027c64905ff9e2266a64736f6c63430008100033",
  "immutableReferences": {},
  "source": "// SPDX-License-Identifier: GPL-3.0\npragma solidity >=0.7.0 <0.9.0;\ninterface ERC20Interface{\n    function totalSupply() external view returns(uint);\n    function balanceOf(address tokenOwner) external view returns (uint balance);\n    function transfer(address to,uint tokens) external returns(bool success);\n\n\n     function allowance(address tokenOwner,address spender) external view returns(uint remaining);\n     function approve(address spender,uint tokens) external returns (bool success);\n     function tranferFrom(address from,address to,uint tokens) external returns (bool success);\n\n\n    event Transfer(address indexed from, address indexed to, uint token);\n    event Approval(address indexed tokenOwner,address indexed spender,uint tokens);\n\n\n\n}\n\n\ncontract ERC20 is ERC20Interface{\n    \n    string public name = \"Cryptos\";\n    string public symbol= \"CRPT\";\n    uint public decimals = 0; //18\n    // total supply - represent the toral number of tokens\n    uint public override totalSupply; // a getter function will be created bcz the variable is public\n\n    address public founder;\n    // map to store each address and no of tokens with respect to it\n    mapping(address=>uint) public balances;\n   \n\n   constructor(){\n    totalSupply= 1000000;\n    founder = msg.sender;\n    balances[founder] = totalSupply;\n   }\n\n\n// first - this mapping includes the accounts approved tp withdraw from a \n// account together with the withdrawal sum allowed for wach of them\n\n// first mapping is the key - the address of the token holder\n// second map inside it - is representing the addresses that are allowed to transfer\n\n   mapping(address=>mapping(address=>uint)) public allowed;\n\n\n      function balanceOf(address tokenOwner) public view override returns (uint balance){\n        return balances[tokenOwner];\n      }\n  \n function transfer(address to,uint tokens) public override returns(bool success){\n      \n       require(balances[msg.sender]>=tokens,\"not enough balance available to tranfer\");\n       \n       balances[to] +=tokens;\n       balances[msg.sender] -= tokens;\n\n       emit Transfer(msg.sender, to, tokens);\n       return true;\n }\n\n\n\n // it allows the spender to withdraw and transfer from the\n // owners account multiple times upto the allowance\n // this function will also change the current allowance\n // func - will only be called by the account that was allowed to\n // transfer token from the holders accounts to his own or to another\n\n \n\n function tranferFrom(address from,address to,uint tokens) public override returns (bool success){\n    // checking the allowance of curent user - who call this function\n    // is greater and equal to tokens\n    \n    require(allowed[from][msg.sender]>=tokens);\n    require(balances[from]>= tokens);\n    balances[from] -= tokens;\n    allowed[from][msg.sender] -=tokens;\n    balances[to] += tokens;\n    emit Transfer(from, to, tokens);\n    return true;\n  }\n   function allowance(address tokenOwner,address spender) public view override returns(uint remaining){\n    return allowed[tokenOwner][spender];\n   }\n\n\n// this functiokn will be called by token owner to set the allowance\n// which is the ammount that can be spent by the spender of this account\n\n  function approve(address spender,uint tokens) public override returns (bool success){\n     require(balances[msg.sender] >= tokens);\n     require(tokens>0); \n     allowed[msg.sender][spender] = tokens;\n  \n     emit Approval(msg.sender, spender, tokens);\n     return true;\n  }\n     \n\n    \n\n\n}\n\ncontract CryptosICO is ERC20{\n    // admin - who deploys the contract\n    // -if any emergency or can change the deposit if it gets compromised\n\n     address public admin;\n\n     // investor will send eth to contract address\n     // the ether will automictaically transfer to deposit address\n     // and the cryptos will be added to the balance of investor\n     address payable public deposit;\n\n     // set token price - 1000crypt for 1 ether\n     uint tokenPrice = 0.001 ether;\n\n     // hardcap - maximum amount of ether that can be invested\n     uint public hardcap = 300 ether;\n\n     // raisedAmount - total amount of ether sent to the ICO\n     uint public raisedAmount;\n\n   // iCo will start in 20 seconds after the deployment\n     uint public saleStart = block.timestamp + 20;\n\n     uint public saleEnd = block.timestamp + 604800;\n\n    // set token to tranfer only after a time after the Ico\n    // ends so that the early investors can not dump the tokens on the market, \n    // causing the price to collapse\n    uint public tokenTradeStart = saleEnd + 604800; // transferable in a week after sale\n     \n    // maximmum and minimum investment\n    uint public maxInvestment = 5 ether;\n    uint public minInvestment = 0.1 ether;\n\n    enum State{beforeStart, running , afterEnd, halted}\n    \n    State public icoState;\n\n\n    constructor(address payable _deposit){\n        deposit = _deposit;\n        admin = msg.sender;\n        icoState = State.beforeStart;\n\n    }\n\n    modifier onlyAdmin(){\n        require(msg.sender==admin);\n        _;\n    }\n   // this function only called by admin to stop the ico at any moment\n\n    function halt() public onlyAdmin{\n        icoState= State.halted;\n\n    }\n\n\n    function resume() public onlyAdmin{\n          icoState= State.running;\n    }\n   \n\n\n   // function called only by admin to change the deposit address\n    \n    function changeDepositAddress(address payable newDeposit) public onlyAdmin{\n        deposit = newDeposit;\n    } \n   \n\n   // function to return the state of ICO\n   \n\n   function getCurrentState() public view returns(State){\n      if(icoState==State.halted){\n        return State.halted;\n      }else if(block.timestamp<saleStart){\n        return State.beforeStart;\n      }else if(block.timestamp>= saleStart && block.timestamp <= saleEnd){\n        return State.running;\n      }else{\n        return State.afterEnd;\n      }\n   }\n\n}\n\n",
  "sourcePath": "/home/tuba/Work-Folder/BlockChain-Developement/ICO-Dapp-Application/src/contracts/ERC20.sol",
  "compiler": {
    "name": "solc",
    "version": "0.8.16+commit.07a7930e.Emscripten.clang"
  },
  "schemaVersion": "3.4.9",
  "updatedAt": "2022-09-07T12:47:27.736Z",
  "devdoc": {
    "kind": "dev",
    "methods": {},
    "version": 1
  },
  "userdoc": {
    "kind": "user",
    "methods": {},
    "version": 1
  }
}