{
  "contractName": "ERC20",
  "abi": [
    {
      "inputs": [],
      "stateMutability": "nonpayable",
      "type": "constructor"
    },
    {
      "anonymous": false,
      "inputs": [
        {
          "indexed": true,
          "internalType": "address",
          "name": "tokenOwner",
          "type": "address"
        },
        {
          "indexed": true,
          "internalType": "address",
          "name": "spender",
          "type": "address"
        },
        {
          "indexed": false,
          "internalType": "uint256",
          "name": "tokens",
          "type": "uint256"
        }
      ],
      "name": "Approval",
      "type": "event"
    },
    {
      "anonymous": false,
      "inputs": [
        {
          "indexed": true,
          "internalType": "address",
          "name": "from",
          "type": "address"
        },
        {
          "indexed": true,
          "internalType": "address",
          "name": "to",
          "type": "address"
        },
        {
          "indexed": false,
          "internalType": "uint256",
          "name": "token",
          "type": "uint256"
        }
      ],
      "name": "Transfer",
      "type": "event"
    },
    {
      "inputs": [
        {
          "internalType": "address",
          "name": "",
          "type": "address"
        },
        {
          "internalType": "address",
          "name": "",
          "type": "address"
        }
      ],
      "name": "allowed",
      "outputs": [
        {
          "internalType": "uint256",
          "name": "",
          "type": "uint256"
        }
      ],
      "stateMutability": "view",
      "type": "function"
    },
    {
      "inputs": [
        {
          "internalType": "address",
          "name": "",
          "type": "address"
        }
      ],
      "name": "balances",
      "outputs": [
        {
          "internalType": "uint256",
          "name": "",
          "type": "uint256"
        }
      ],
      "stateMutability": "view",
      "type": "function"
    },
    {
      "inputs": [],
      "name": "decimals",
      "outputs": [
        {
          "internalType": "uint256",
          "name": "",
          "type": "uint256"
        }
      ],
      "stateMutability": "view",
      "type": "function"
    },
    {
      "inputs": [],
      "name": "founder",
      "outputs": [
        {
          "internalType": "address",
          "name": "",
          "type": "address"
        }
      ],
      "stateMutability": "view",
      "type": "function"
    },
    {
      "inputs": [],
      "name": "name",
      "outputs": [
        {
          "internalType": "string",
          "name": "",
          "type": "string"
        }
      ],
      "stateMutability": "view",
      "type": "function"
    },
    {
      "inputs": [],
      "name": "symbol",
      "outputs": [
        {
          "internalType": "string",
          "name": "",
          "type": "string"
        }
      ],
      "stateMutability": "view",
      "type": "function"
    },
    {
      "inputs": [],
      "name": "totalSupply",
      "outputs": [
        {
          "internalType": "uint256",
          "name": "",
          "type": "uint256"
        }
      ],
      "stateMutability": "view",
      "type": "function"
    },
    {
      "inputs": [
        {
          "internalType": "address",
          "name": "tokenOwner",
          "type": "address"
        }
      ],
      "name": "balanceOf",
      "outputs": [
        {
          "internalType": "uint256",
          "name": "balance",
          "type": "uint256"
        }
      ],
      "stateMutability": "view",
      "type": "function"
    },
    {
      "inputs": [
        {
          "internalType": "address",
          "name": "to",
          "type": "address"
        },
        {
          "internalType": "uint256",
          "name": "tokens",
          "type": "uint256"
        }
      ],
      "name": "transfer",
      "outputs": [
        {
          "internalType": "bool",
          "name": "success",
          "type": "bool"
        }
      ],
      "stateMutability": "nonpayable",
      "type": "function"
    },
    {
      "inputs": [
        {
          "internalType": "address",
          "name": "from",
          "type": "address"
        },
        {
          "internalType": "address",
          "name": "to",
          "type": "address"
        },
        {
          "internalType": "uint256",
          "name": "tokens",
          "type": "uint256"
        }
      ],
      "name": "tranferFrom",
      "outputs": [
        {
          "internalType": "bool",
          "name": "success",
          "type": "bool"
        }
      ],
      "stateMutability": "nonpayable",
      "type": "function"
    },
    {
      "inputs": [
        {
          "internalType": "address",
          "name": "tokenOwner",
          "type": "address"
        },
        {
          "internalType": "address",
          "name": "spender",
          "type": "address"
        }
      ],
      "name": "allowance",
      "outputs": [
        {
          "internalType": "uint256",
          "name": "remaining",
          "type": "uint256"
        }
      ],
      "stateMutability": "view",
      "type": "function"
    },
    {
      "inputs": [
        {
          "internalType": "address",
          "name": "spender",
          "type": "address"
        },
        {
          "internalType": "uint256",
          "name": "tokens",
          "type": "uint256"
        }
      ],
      "name": "approve",
      "outputs": [
        {
          "internalType": "bool",
          "name": "success",
          "type": "bool"
        }
      ],
      "stateMutability": "nonpayable",
      "type": "function"
    }
  ],
  "bytecode": "0x60806040526040518060400160405280600781526020017f43727970746f7300000000000000000000000000000000000000000000000000815250600090816200004a9190620003d8565b506040518060400160405280600481526020017f435250540000000000000000000000000000000000000000000000000000000081525060019081620000919190620003d8565b506000600255348015620000a457600080fd5b50620f424060038190555033600460006101000a81548173ffffffffffffffffffffffffffffffffffffffff021916908373ffffffffffffffffffffffffffffffffffffffff16021790555060035460056000600460009054906101000a900473ffffffffffffffffffffffffffffffffffffffff1673ffffffffffffffffffffffffffffffffffffffff1673ffffffffffffffffffffffffffffffffffffffff16815260200190815260200160002081905550620004bf565b600081519050919050565b7f4e487b7100000000000000000000000000000000000000000000000000000000600052604160045260246000fd5b7f4e487b7100000000000000000000000000000000000000000000000000000000600052602260045260246000fd5b60006002820490506001821680620001e057607f821691505b602082108103620001f657620001f562000198565b5b50919050565b60008190508160005260206000209050919050565b60006020601f8301049050919050565b600082821b905092915050565b600060088302620002607fffffffffffffffffffffffffffffffffffffffffffffffffffffffffffffffff8262000221565b6200026c868362000221565b95508019841693508086168417925050509392505050565b6000819050919050565b6000819050919050565b6000620002b9620002b3620002ad8462000284565b6200028e565b62000284565b9050919050565b6000819050919050565b620002d58362000298565b620002ed620002e482620002c0565b8484546200022e565b825550505050565b600090565b62000304620002f5565b62000311818484620002ca565b505050565b5b8181101562000339576200032d600082620002fa565b60018101905062000317565b5050565b601f82111562000388576200035281620001fc565b6200035d8462000211565b810160208510156200036d578190505b620003856200037c8562000211565b83018262000316565b50505b505050565b600082821c905092915050565b6000620003ad600019846008026200038d565b1980831691505092915050565b6000620003c883836200039a565b9150826002028217905092915050565b620003e3826200015e565b67ffffffffffffffff811115620003ff57620003fe62000169565b5b6200040b8254620001c7565b620004188282856200033d565b600060209050601f8311600181146200045057600084156200043b578287015190505b620004478582620003ba565b865550620004b7565b601f1984166200046086620001fc565b60005b828110156200048a5784890151825560018201915060208501945060208101905062000463565b86831015620004aa5784890151620004a6601f8916826200039a565b8355505b6001600288020188555050505b505050505050565b610efe80620004cf6000396000f3fe608060405234801561001057600080fd5b50600436106100b45760003560e01c80635c658165116100715780635c6581651461019157806370a08231146101c15780639264a169146101f157806395d89b4114610221578063a9059cbb1461023f578063dd62ed3e1461026f576100b4565b806306fdde03146100b9578063095ea7b3146100d757806318160ddd1461010757806327e235e314610125578063313ce567146101555780634d853ee514610173575b600080fd5b6100c161029f565b6040516100ce9190610afa565b60405180910390f35b6100f160048036038101906100ec9190610bb5565b61032d565b6040516100fe9190610c10565b60405180910390f35b61010f610478565b60405161011c9190610c3a565b60405180910390f35b61013f600480360381019061013a9190610c55565b61047e565b60405161014c9190610c3a565b60405180910390f35b61015d610496565b60405161016a9190610c3a565b60405180910390f35b61017b61049c565b6040516101889190610c91565b60405180910390f35b6101ab60048036038101906101a69190610cac565b6104c2565b6040516101b89190610c3a565b60405180910390f35b6101db60048036038101906101d69190610c55565b6104e7565b6040516101e89190610c3a565b60405180910390f35b61020b60048036038101906102069190610cec565b610530565b6040516102189190610c10565b60405180910390f35b6102296107b6565b6040516102369190610afa565b60405180910390f35b61025960048036038101906102549190610bb5565b610844565b6040516102669190610c10565b60405180910390f35b61028960048036038101906102849190610cac565b6109e3565b6040516102969190610c3a565b60405180910390f35b600080546102ac90610d6e565b80601f01602080910402602001604051908101604052809291908181526020018280546102d890610d6e565b80156103255780601f106102fa57610100808354040283529160200191610325565b820191906000526020600020905b81548152906001019060200180831161030857829003601f168201915b505050505081565b600081600560003373ffffffffffffffffffffffffffffffffffffffff1673ffffffffffffffffffffffffffffffffffffffff16815260200190815260200160002054101561037b57600080fd5b6000821161038857600080fd5b81600660003373ffffffffffffffffffffffffffffffffffffffff1673ffffffffffffffffffffffffffffffffffffffff16815260200190815260200160002060008573ffffffffffffffffffffffffffffffffffffffff1673ffffffffffffffffffffffffffffffffffffffff168152602001908152602001600020819055508273ffffffffffffffffffffffffffffffffffffffff163373ffffffffffffffffffffffffffffffffffffffff167f8c5be1e5ebec7d5bd14f71427d1e84f3dd0314c0f7b2291e5b200ac8c7c3b925846040516104669190610c3a565b60405180910390a36001905092915050565b60035481565b60056020528060005260406000206000915090505481565b60025481565b600460009054906101000a900473ffffffffffffffffffffffffffffffffffffffff1681565b6006602052816000526040600020602052806000526040600020600091509150505481565b6000600560008373ffffffffffffffffffffffffffffffffffffffff1673ffffffffffffffffffffffffffffffffffffffff168152602001908152602001600020549050919050565b600081600660008673ffffffffffffffffffffffffffffffffffffffff1673ffffffffffffffffffffffffffffffffffffffff16815260200190815260200160002060003373ffffffffffffffffffffffffffffffffffffffff1673ffffffffffffffffffffffffffffffffffffffff1681526020019081526020016000205410156105bb57600080fd5b81600560008673ffffffffffffffffffffffffffffffffffffffff1673ffffffffffffffffffffffffffffffffffffffff16815260200190815260200160002054101561060757600080fd5b81600560008673ffffffffffffffffffffffffffffffffffffffff1673ffffffffffffffffffffffffffffffffffffffff16815260200190815260200160002060008282546106569190610dce565b9250508190555081600660008673ffffffffffffffffffffffffffffffffffffffff1673ffffffffffffffffffffffffffffffffffffffff16815260200190815260200160002060003373ffffffffffffffffffffffffffffffffffffffff1673ffffffffffffffffffffffffffffffffffffffff16815260200190815260200160002060008282546106e99190610dce565b9250508190555081600560008573ffffffffffffffffffffffffffffffffffffffff1673ffffffffffffffffffffffffffffffffffffffff168152602001908152602001600020600082825461073f9190610e02565b925050819055508273ffffffffffffffffffffffffffffffffffffffff168473ffffffffffffffffffffffffffffffffffffffff167fddf252ad1be2c89b69c2b068fc378daa952ba7f163c4a11628f55a4df523b3ef846040516107a39190610c3a565b60405180910390a3600190509392505050565b600180546107c390610d6e565b80601f01602080910402602001604051908101604052809291908181526020018280546107ef90610d6e565b801561083c5780601f106108115761010080835404028352916020019161083c565b820191906000526020600020905b81548152906001019060200180831161081f57829003601f168201915b505050505081565b600081600560003373ffffffffffffffffffffffffffffffffffffffff1673ffffffffffffffffffffffffffffffffffffffff1681526020019081526020016000205410156108c8576040517f08c379a00000000000000000000000000000000000000000000000000000000081526004016108bf90610ea8565b60405180910390fd5b81600560008573ffffffffffffffffffffffffffffffffffffffff1673ffffffffffffffffffffffffffffffffffffffff16815260200190815260200160002060008282546109179190610e02565b9250508190555081600560003373ffffffffffffffffffffffffffffffffffffffff1673ffffffffffffffffffffffffffffffffffffffff168152602001908152602001600020600082825461096d9190610dce565b925050819055508273ffffffffffffffffffffffffffffffffffffffff163373ffffffffffffffffffffffffffffffffffffffff167fddf252ad1be2c89b69c2b068fc378daa952ba7f163c4a11628f55a4df523b3ef846040516109d19190610c3a565b60405180910390a36001905092915050565b6000600660008473ffffffffffffffffffffffffffffffffffffffff1673ffffffffffffffffffffffffffffffffffffffff16815260200190815260200160002060008373ffffffffffffffffffffffffffffffffffffffff1673ffffffffffffffffffffffffffffffffffffffff16815260200190815260200160002054905092915050565b600081519050919050565b600082825260208201905092915050565b60005b83811015610aa4578082015181840152602081019050610a89565b60008484015250505050565b6000601f19601f8301169050919050565b6000610acc82610a6a565b610ad68185610a75565b9350610ae6818560208601610a86565b610aef81610ab0565b840191505092915050565b60006020820190508181036000830152610b148184610ac1565b905092915050565b600080fd5b600073ffffffffffffffffffffffffffffffffffffffff82169050919050565b6000610b4c82610b21565b9050919050565b610b5c81610b41565b8114610b6757600080fd5b50565b600081359050610b7981610b53565b92915050565b6000819050919050565b610b9281610b7f565b8114610b9d57600080fd5b50565b600081359050610baf81610b89565b92915050565b60008060408385031215610bcc57610bcb610b1c565b5b6000610bda85828601610b6a565b9250506020610beb85828601610ba0565b9150509250929050565b60008115159050919050565b610c0a81610bf5565b82525050565b6000602082019050610c256000830184610c01565b92915050565b610c3481610b7f565b82525050565b6000602082019050610c4f6000830184610c2b565b92915050565b600060208284031215610c6b57610c6a610b1c565b5b6000610c7984828501610b6a565b91505092915050565b610c8b81610b41565b82525050565b6000602082019050610ca66000830184610c82565b92915050565b60008060408385031215610cc357610cc2610b1c565b5b6000610cd185828601610b6a565b9250506020610ce285828601610b6a565b9150509250929050565b600080600060608486031215610d0557610d04610b1c565b5b6000610d1386828701610b6a565b9350506020610d2486828701610b6a565b9250506040610d3586828701610ba0565b9150509250925092565b7f4e487b7100000000000000000000000000000000000000000000000000000000600052602260045260246000fd5b60006002820490506001821680610d8657607f821691505b602082108103610d9957610d98610d3f565b5b50919050565b7f4e487b7100000000000000000000000000000000000000000000000000000000600052601160045260246000fd5b6000610dd982610b7f565b9150610de483610b7f565b9250828203905081811115610dfc57610dfb610d9f565b5b92915050565b6000610e0d82610b7f565b9150610e1883610b7f565b9250828201905080821115610e3057610e2f610d9f565b5b92915050565b7f6e6f7420656e6f7567682062616c616e636520617661696c61626c6520746f2060008201527f7472616e66657200000000000000000000000000000000000000000000000000602082015250565b6000610e92602783610a75565b9150610e9d82610e36565b604082019050919050565b60006020820190508181036000830152610ec181610e85565b905091905056fea2646970667358221220818332464fe4800b255a61e8852df5e3aae9362ece733ee3252d2c79db38fe8264736f6c63430008100033",
  "immutableReferences": {},
  "source": "// SPDX-License-Identifier: GPL-3.0\npragma solidity >=0.7.0 <0.9.0;\ninterface ERC20Interface{\n    function totalSupply() external view returns(uint);\n    function balanceOf(address tokenOwner) external view returns (uint balance);\n    function transfer(address to,uint tokens) external returns(bool success);\n\n\n     function allowance(address tokenOwner,address spender) external view returns(uint remaining);\n     function approve(address spender,uint tokens) external returns (bool success);\n     function tranferFrom(address from,address to,uint tokens) external returns (bool success);\n\n\n    event Transfer(address indexed from, address indexed to, uint token);\n    event Approval(address indexed tokenOwner,address indexed spender,uint tokens);\n\n\n\n}\n\n\ncontract ERC20 is ERC20Interface{\n    \n    string public name = \"Cryptos\";\n    string public symbol= \"CRPT\";\n    uint public decimals = 0; //18\n    // total supply - represent the toral number of tokens\n    uint public override totalSupply; // a getter function will be created bcz the variable is public\n\n    address public founder;\n    // map to store each address and no of tokens with respect to it\n    mapping(address=>uint) public balances;\n   \n\n   constructor(){\n    totalSupply= 1000000;\n    founder = msg.sender;\n    balances[founder] = totalSupply;\n   }\n\n\n// first - this mapping includes the accounts approved tp withdraw from a \n// account together with the withdrawal sum allowed for wach of them\n\n// first mapping is the key - the address of the token holder\n// second map inside it - is representing the addresses that are allowed to transfer\n\n   mapping(address=>mapping(address=>uint)) public allowed;\n\n\n      function balanceOf(address tokenOwner) public view override returns (uint balance){\n        return balances[tokenOwner];\n      }\n  \n function transfer(address to,uint tokens) public override returns(bool success){\n      \n       require(balances[msg.sender]>=tokens,\"not enough balance available to tranfer\");\n       \n       balances[to] +=tokens;\n       balances[msg.sender] -= tokens;\n\n       emit Transfer(msg.sender, to, tokens);\n       return true;\n }\n\n\n\n // it allows the spender to withdraw and transfer from the\n // owners account multiple times upto the allowance\n // this function will also change the current allowance\n // func - will only be called by the account that was allowed to\n // transfer token from the holders accounts to his own or to another\n\n \n\n function tranferFrom(address from,address to,uint tokens) public override returns (bool success){\n    // checking the allowance of curent user - who call this function\n    // is greater and equal to tokens\n    \n    require(allowed[from][msg.sender]>=tokens);\n    require(balances[from]>= tokens);\n    balances[from] -= tokens;\n    allowed[from][msg.sender] -=tokens;\n    balances[to] += tokens;\n    emit Transfer(from, to, tokens);\n    return true;\n  }\n   function allowance(address tokenOwner,address spender) public view override returns(uint remaining){\n    return allowed[tokenOwner][spender];\n   }\n\n\n// this functiokn will be called by token owner to set the allowance\n// which is the ammount that can be spent by the spender of this account\n\n  function approve(address spender,uint tokens) public override returns (bool success){\n     require(balances[msg.sender] >= tokens);\n     require(tokens>0); \n     allowed[msg.sender][spender] = tokens;\n  \n     emit Approval(msg.sender, spender, tokens);\n     return true;\n  }\n     \n\n    \n\n\n}\n\ncontract CryptosICO is ERC20{\n    // admin - who deploys the contract\n    // -if any emergency or can change the deposit if it gets compromised\n\n     address public admin;\n\n     // investor will send eth to contract address\n     // the ether will automictaically transfer to deposit address\n     // and the cryptos will be added to the balance of investor\n     address payable public deposit;\n\n     // set token price - 1000crypt for 1 ether\n     uint tokenPrice = 0.001 ether;\n\n     // hardcap - maximum amount of ether that can be invested\n     uint public hardcap = 300 ether;\n\n     // raisedAmount - total amount of ether sent to the ICO\n     uint public raisedAmount;\n\n   // iCo will start in 20 seconds after the deployment\n     uint public saleStart = block.timestamp + 20;\n\n     uint public saleEnd = block.timestamp + 604800;\n\n    // set token to tranfer only after a time after the Ico\n    // ends so that the early investors can not dump the tokens on the market, \n    // causing the price to collapse\n    uint public tokenTradeStart = saleEnd + 604800; // transferable in a week after sale\n     \n    // maximmum and minimum investment\n    uint public maxInvestment = 5 ether;\n    uint public minInvestment = 0.1 ether;\n\n    enum State{beforeStart, running , afterEnd, halted}\n    \n    State public icoState;\n\n\n    constructor(address payable _deposit){\n        deposit = _deposit;\n        admin = msg.sender;\n        icoState = State.beforeStart;\n\n    }\n\n    modifier onlyAdmin(){\n        require(msg.sender==admin);\n        _;\n    }\n   // this function only called by admin to stop the ico at any moment\n\n    function halt() public onlyAdmin{\n        icoState= State.halted;\n\n    }\n\n\n    function resume() public onlyAdmin{\n          icoState= State.running;\n    }\n   \n\n\n   // function called only by admin to change the deposit address\n    \n    function changeDepositAddress(address payable newDeposit) public onlyAdmin{\n        deposit = newDeposit;\n    } \n   \n\n   // function to return the state of ICO\n   \n\n   function getCurrentState() public view returns(State){\n      if(icoState==State.halted){\n        return State.halted;\n      }else if(block.timestamp<saleStart){\n        return State.beforeStart;\n      }else if(block.timestamp>= saleStart && block.timestamp <= saleEnd){\n        return State.running;\n      }else{\n        return State.afterEnd;\n      }\n   }\n\n   event Invest(address investor,uint value, uint tokens);\n\n   // main function of the Ico - invest\n   // call- when somebody sends eth to the contract\n   // and recieves cryptos in return\n    \n    function invest() payable public returns(bool){\n         // first check that the ico is in the running state\n      icoState= getCurrentState();\n      require(icoState == State.running);\n      require(msg.value >= minInvestment && msg.value <= maxInvestment);\n       \n       // add the value into raised amount\n      raisedAmount += msg.value;\n      \n      require(raisedAmount <= hardcap);\n\n\n      // calculate the number of tokens user will get for the ether he has just sent\n     \n     uint tokens = msg.value/ tokenPrice;\n\n     // now these tokens will be added to invester balance \n     // and subtracted from the founder balance\n\n     balances[msg.sender] += tokens;\n     balances[founder] -= tokens;\n   \n\n   // now transfer to the deposit address the amount of wei sent to the contract\n   deposit.transfer(msg.value);\n\n    emit Invest(msg.sender,msg.value,tokens);\n    \n\n  return true;\n    }\n\n    // the contract will accept eth that has sent to its address\n    // if there is payable function called recieve\n\nreceive() payable external{\n    // this function will automatically call when someone sends\n    // ether to contact\n    invest();\n}\n\n\n\n\n}\n\n",
  "sourcePath": "/home/tuba/Work-Folder/BlockChain-Developement/ICO-Dapp-Application/src/contracts/ERC20.sol",
  "compiler": {
    "name": "solc",
    "version": "0.8.16+commit.07a7930e.Emscripten.clang"
  },
  "schemaVersion": "3.4.9",
  "updatedAt": "2022-09-07T13:16:48.528Z",
  "devdoc": {
    "kind": "dev",
    "methods": {},
    "version": 1
  },
  "userdoc": {
    "kind": "user",
    "methods": {},
    "version": 1
  }
}